:020000040800F2
:10000000005000208D3D0108393E0108612701089C
:10001000393E0108393E0108393E01080000000060
:10002000000000000000000000000000393E010850
:10003000393E010800000000393E0108452701084B
:10004000393E0108393E0108393E0108393E0108B0
:10005000393E0108393E0108B5260108B1260108DC
:10006000393E010855270108393E0108393E01088B
:10007000393E0108393E010871260108393E010860
:10008000B9260108393E0108393E0108393E010808
:10009000393E0108393E0108393E0108AD26010804
:1000A000393E01082D260108393E01083D26010888
:1000B0001D2601080D260108FD250108F526010869
:1000C000ED260108F1260108E9260108393E01085C
:1000D000393E010865260108592601084D26010808
:1000E0005B270108393E0108393E01080000000085
:1000F0000000000000000000000000000000000000
:0C01000000000000000000005FF808F1A3
:100110002DE9F04F784B794EA1B033600023736026
:100120000CF0CCF818B911F081FF0CF0E9F8744D1F
:100130000CF0A6FE4FF47A53A5F85031714B724C77
:100140001A7842F001021A700023089309930A9367
:100150004FF4E0130B932368AA7B43F480332360AE
:10016000A36943F01003A361236803F400330993E8
:10017000089B01330893099B1BB9089BB3F5A06F3B
:10018000F2D12168604B11F4003101D0022315E057
:10019000186840F0010018600891236803F002031A
:1001A0000993089B01330893099B1BB9089BB3F57E
:1001B000A06FF2D123689F0739D501230A93534BCF
:1001C0005348196841F010011960196821F00301C2
:1001D0001960196841F0020119606368636063681F
:1001E0006360636843F4806363604A4B1968043B4F
:1001F00021F07041596048490860606820F47C1023
:100200006060586840F000405860D86820F40040B2
:10021000D8609B68180449BF404B4FF4E0130B6053
:100220004FF480130B930A9B012B01D117E0FEE7DB
:10023000022B18D16AB10B9BB3F5801F02D14FF48A
:10024000A01305E00B9BB3F5E01F02D14FF40013A0
:100250000B9362680B9B134343F4803302E06368A3
:1002600043F460136360236843F080732360226863
:10027000254B9201FBD55A6822F003025A605A6856
:1002800042F002025A6062681F4B02F00C02082A18
:10029000F9D15868224A00F00C00042803D008283D
:1002A00004D01B4B00E00B68136011E058685F68D6
:1002B000C0F38340FF0300F1020001D4194B05E0B5
:1002C0005B6813F4003F0B6818BF5B08584310606D
:1002D00063681548C3F3031303441F7E1368FB4090
:1002E0001360EA7B003218BF012232720A680849A3
:1002F0008A421BD101211DE0937E0008801300205B
:10030000A0020020AC340020001002400020024077
:1003100000127A00041001401C000020001BB700EE
:100320005400002000093D009C9A0108B1498A420E
:1003300002D10221B04A1170DFF820C3AF4A0DF19B
:10034000800ACCF80C20A269DFF8D49242F00102B6
:10035000A261626ADFF8CCB2F260626A4FF0000814
:1003600042F080726262A269484642F01C02A261B9
:100370004FF6FF722AF82C2D51460493CDF80CC08D
:100380008DF8568006F075F85846514606F071F81B
:100390009B48514606F06DF802228DF83B2020AFB5
:1003A0004FF4007227F8482D4FF010008DF83A00F6
:1003B0003946C9F81020484606F05BF8914A504685
:1003C000516841F00071516008F05AFC8E49159A4D
:1003D000B2FBF1F28D49326101F11400182241465D
:1003E00015F0EAFF049B4FF47A72B3FBF2F3884AEC
:1003F000DDF80CC0013B5360F0238CF82330072359
:10040000C2F808801360AB68DFF820C2CCF8003077
:10041000804B0FCB8AE80F00A369102243F008033A
:10042000A361A369159843F00803A3610823CBF8DF
:10043000103016A9CBF81020CDF80CC006F019F832
:10044000179818A906F015F8DDF80CC0DCF8003094
:10045000180746D5704890F88E31012B41D86B496A
:1004600090F88F21CB6813F0805900F0EA8543465D
:10047000002B36D0694BDFF8AC8118684FF0100BB9
:10048000C8F814B051461590654805F0F2FF644A6B
:10049000082313613C2007F0F2FBC8F810B04FF0BE
:1004A000000B95F88F319B4517DA5E4B5C484FF097
:1004B0000808C3F81080C0F814807820049307F06F
:1004C000D3FB049B5649C3F814807820C1F81080F0
:1004D00007F0CAFB0BF1010BE3E7B9F1000F00F0E5
:1004E000B985642007F0CBFBA0224F48002115F00E
:1004F00063FFE369002243F00703E361A36943F468
:10050000006343F00C03A361404B4FF0000903F17B
:100510002C0102F8019001320E2AF5D1FF2283F856
:100520003A2083F83B2083F83C2083F83D203F4A63
:100530003F4BD2F800803F4A49461A603E483C2271
:1005400015F03AFF08F04004052349460C203B4AC9
:10055000484311F802E0384A00F802E054B9AEF11D
:100560001E0EBEF1010F05D84FF0FF0E013B00F843
:1005700002E0DBB201310529E8D1314A95F8059056
:100580001370304A304B3264C03272642F4A83F8A1
:10059000009002EBC9021D4B527818F0200F18BFD3
:1005A00001229A6400232A4A40F2DC519952023314
:1005B000102BF8D1384600211C2215F0FDFE18F44E
:1005C000007B08F400674BD018F4005F0CD147B1F2
:1005D000204B95F88211A3F10C02012918BF134694
:1005E00000E01D4B069301E01A480690CDF850A09C
:1005F00038E000BF001BB700D93400200005FA0521
:10060000001001400000014040420F008013002014
:1006100010E000E0C49A0108A0020020D49A01086A
:1006200000080140000C01400C330020DC000020D9
:10063000C41C002090040020801D002052B9010835
:100640007D1D0020B0020020C40D002038BA010832
:10065000DE0D0020A89A01089C9A010800ED00E038
:10066000CDF818B0B9F10E0F04D009F0EF09B9F1C7
:10067000080F02D101238DF84A30012007F008FA53
:1006800018B14088003018BF0120C8F3400300347F
:100690008DF83E30C8F3403300F0010018BF01244C
:1006A0008DF83830C8F3C0338DF83D008DF84040E8
:1006B0008DF83B3027B195F88271791E4F424F413A
:1006C000C8F300438DF84130B36C1BF1000B18BF29
:1006D0004FF0010B003318BF01238DF84330C8F3EE
:1006E00000538DF84430B5F84631B5F84421ADF8E3
:1006F0004830B5F852318DF83C70ADF84630C8F34B
:1007000080438DF83F30B5F8503108F00107C8F349
:10071000C00418F4805F8DF839708DF83A408DF878
:1007200042B0ADF84C30ADF84E2004D0B54AB2F826
:100730004C21ADF84E20B3F5FA7F84BF0023ADF80D
:100740004E3095F8D231B0480021642286F84C3002
:1007500015F032FE9DF84A30002B14BF022300230F
:1007600007B904B10133A9494FF0000B01EB830332
:10077000DB6BCDF814B00793079B33F80B204FF6D3
:10078000FF739A4200F0B681D3B2A14E9DF83D109E
:100790001D01741919B1991E012940F2A5819DF816
:1007A000401021B171599B48814200F09D819DF814
:1007B000417027B171599748814200F095819DF8A9
:1007C0003E1039B161689448814203D121891029D2
:1007D00000F08A819DF83B1039B161688E488142F2
:1007E00003D12189022900F07F819DF83C1039B1A5
:1007F00061688A48814203D12189022900F074810D
:10080000DDF850E0BEF1000F0FD06068DEF8001098
:1008100088420AD12189BEF80400884200F0648130
:10082000BEF80600884200F05F814FEA1228B8F156
:10083000020F02D19DF8382004E0B8F1010F04D175
:100840009DF83920002A00F04F819DF8432062B1C5
:100850009DF84A204AB9A3F10802012A05D8715926
:100860006F4A914208BF4FF004089DF8442052B1EE
:100870009DF84A203AB917B10C3B012B01E0043B2B
:10088000032B40F20C81B8F1010F40D1654FFF23DB
:1008900087F8F83087F8F930637B4FF00009228938
:1008A00060688DF856305146022387F8FC90C7F8EF
:1008B00008418DF85730ADF8542087F8B490C7F848
:1008C000B890C7F8BC90C7F8C090C7F8F49087F804
:1008D000FA9087F8FB9005F0CCFD7059A17A4A4652
:1008E00008F044FB2046494642460BF09EFA4E4B28
:1008F000C7F81491C7F80C314C4B2046C7F810319B
:1009000007F5867107F5887208F092FFECE0B8F100
:10091000020F3DD10599464ACBB21C214B430598A5
:10092000D7184FF000094FF0010C787087F802904B
:1009300087F80A9002F803C0637B22896068FC6034
:1009400015A98DF85630CDF80CC0ADF854208DF8AF
:10095000578005F08EFD7059A17A4A4608F006FBD3
:10096000DDF80CC02046624649460BF05EFA314B7A
:1009700007F110013B61304BC7F818907B612046AE
:1009800007F1140208F054FF059901310591ABE01D
:10099000B8F1030F40F080809DF83F30214DA3B1A6
:1009A0000023204608214FF6FF7295F851600BF0A6
:1009B0000FFB224B05EB8606C6F8DC01C36095F8F9
:1009C000523005EBC305192353E0BDF84C3095F8C0
:1009D0005160B3F5FA7F37D9194A2046B2FBF3F2DA
:1009E0000821BDF84E3092B20BF0F2FA154B05EB30
:1009F0008606C6F8DC01C36095F8523005EBC305E6
:100A00000D2336E0A0020020D01300209C9A01089C
:100A100058B901080004004000080140000C0140E2
:100A2000002C014080130020495600084D57000853
:100A30007C140020A98F0008255700085D57000886
:100A400000127A006D570008C04A2046B2FBF3F24C
:100A50000121BDF84E3092B20BF0BAFABC4B05EB57
:100A60008606C6F8DC01C36095F8523005EBC30575
:100A7000092385F85530B74B93F8522093F851105D
:100A800003EBC20080F8541001320131846583F811
:100A9000511083F8522027E0B8F1040F24D1BDF89B
:100AA0004630AA4AAB4D92FBF3F2012192B2BDF857
:100AB0004830204695F850600BF08AFA95F852209D
:100AC0000A2105EBC20383F8551095F8501005EB89
:100AD000860683F8541001320131C6F80C029C6579
:100AE00085F8501085F852200BF1020BBBF11C0F5A
:100AF0007FF442AE974E984D96F85030002786F816
:100B00002C32964B2F701C78A4F11703022B18D8A7
:100B1000336C0021D85903EB070812F0C9FC10B15F
:100B2000B36C5BBB25E08E4B07EB030E98E80F0020
:100B30008EE80F002B7810370133C02F2B70E7D1D0
:100B4000EEE7884B13F834C003EBC403D3F80480FA
:100B500085F800C0B8F1000FE2D06745E0DA804ABE
:100B60003B0103EB020E43440FCB01378EE80F002D
:100B7000F3E77D480368DA0426D41FE07B497C4A0A
:100B800001EBC40393F84C001F6D1070002FF0D0E0
:100B900000238342EDDAC3EBC3017A18D2F8008058
:100BA000DFF804C2013341F80C8001EB0C0E918890
:100BB000AEF8041092798EF80620EAE704F0EF030D
:100BC000082B6C4B25D126E095F80080B8F1010F79
:100BD000F4D9694D0027474505F11005EEDA55F8BF
:100BE000100C4FF07C5112F0CFFA4FF07C5145F8C9
:100BF000100C55F8140C12F0C7FA4FF07C5145F860
:100C0000140C55F80C0C12F0BFFA013745F80C0C17
:100C1000E1E70E2C08D11A78182C42F010021A7055
:100C200008D107F043FB05E01A78192C22F01002D6
:100C30001A70F5E70EF07CFB4B4A13685B0302D495
:100C40004E4B01221A704E4B4E4D1A784E4C42F0CC
:100C500004021A702A789846012A8CBF10231423A4
:100C60008DF856304FF002038DF85730A3694FF4DA
:100C7000805243F00403ADF854208CBF01270027B5
:100C8000A3614248514605F0F4FB414B0FB1414A84
:100C900000E0414A00201A6007F036F83F4B404F11
:100CA00093E80300A3698AE8030043F0080316A948
:100CB000A361159805F0DDFB11F04AFC9F238DF828
:100CC0003430322000234FF480598DF835308DF8C0
:100CD00036308DF8373006F0D2FF0422C7F8149072
:100CE00050460DA90FF0A6FFC7F810909DF85620AA
:100CF0009DF85530120242EA03429DF857301A43DC
:100D0000284B9A4214D0322006F0B9FFC7F814904D
:100D1000F52009F049FEFF2009F046FE7028C7F8CB
:100D2000109005D12B78022B02D1164B03221A709A
:100D30002B78032B0CBF1F20022006F081FE2B789E
:100D4000032B33D0012009F0DFF939E040420F00D6
:100D50005D57000880130020AC0C0020C40D00205B
:100D6000BC0C002038BA0108DC0000209C9A010865
:100D7000F40D00209A020020C40C0020D0120020A4
:100D8000AC340020D934002000100240000801409B
:100D9000BC340020597900086D790008B89B01081F
:100DA000000C014015202000F50D0020022006F067
:100DB0006FFE18B14088003018BF0120C707C1D5A9
:100DC000B54B4FF0100B1F68002107F4006305932B
:100DD000B24B5A4618462D78049315F0EDFA4FF6AB
:100DE000FF72ADF83420049B02224FF0000917EA8D
:100DF000020107F4004A8DF836208DF837901F461F
:100E000010D020A921F84CBDA54808F05BF90423B7
:100E10003B704FF0010B072387F8019087F802B071
:100E2000FB7000E08B46BAF1000F11D0022320A91D
:100E300021F84C3D9A4808F045F901230BEB0302D9
:100E40003B71BB71072387F805B0FB715FFA82FB2A
:100E5000012D12D9202320A921F84C3D904808F0FB
:100E600031F9052301223B72BA720BF1010307220B
:100E700087F809B0FA725FFA83FB059B93B10223EE
:100E800020A921F84C3D874808F01CF909230122CC
:100E90003B73BA730BF10103072287F80DB0FA73A5
:100EA0005FFA83FB6368804843F44043636063698F
:100EB0007D4D43F001036361A36943F40073A361B3
:100EC0000AF017FB15A80AF0E9FA784B00241593ED
:100ED000774BBBF1020F169334BF234680231A933E
:100EE0004FF480731B934FF480631C93202315A948
:100EF0001D9328464FF400531E931794CDF860B00D
:100F000019941F940AF0D7FA2B68BBF1010F43F034
:100F100001032B60674B98BF00215A6888BF0121ED
:100F200022F4702222F4807242EA01225A60996807
:100F3000614A20460A4042F4602242F002029A606E
:100F4000D96A0BF1FF3221F47001D2B241EA0252A8
:100F5000DA62012339188A78002A5AD03A5C5C1C7C
:100F6000092A91F803E0E4B2524911D9A2F10A0525
:100F700005EB45054FF0070C0CFA05FC0EFA05FED3
:100F8000D1F80C9029EA0C0C4CEA0E05CD600EE06D
:100F900002EB42054FF0070C0CFA05FC0EFA05FEB9
:100FA000D1F8109029EA0C0C4CEA0E050D61062BC5
:100FB00040490ED8013B03EB83034FF01F0E0EFA9E
:100FC00003FE9A404D6B25EA0E0545EA02034B638A
:100FD00020E00C2B0ED8073B03EB83034FF01F0ED2
:100FE0000EFA03FE9A400D6B25EA0E0545EA020350
:100FF0000B630FE00D3B03EB83034FF01F0E0EFA64
:1010000003FE9A40CD6A25EA0E0545EA0203CB624B
:1010100000E01C460430102801D023469AE7254BF7
:101020009A6842F480729A609A6842F001029A606B
:101030009A6842F008029A6099681E4A0D0710D516
:10104000FAE702F1FF38B8F1090F8CBF0023012342
:10105000FFF70EBA194B83F88F910EF0C5FEFFF71C
:1010600040BA936843F004039360124A936813F004
:101070000403FAD1114D9168B5F8580141F4A0016B
:101080009160F0B9B5F95A31D3B9B5F95C31D3F102
:10109000010338BF002314E0DC000020981B00206F
:1010A00000080140000C0140080002404C240140AF
:1010B000A81B002000240140FDF7F1FFA002002042
:1010C000034613F001031CD1C24A00B2137112F09F
:1010D00007F8C14912F058F81590B5F95A0111F006
:1010E000FFFFBD4912F050F81690B5F95C0111F000
:1010F000F7FFB94912F048F8B849179015A807F05A
:10110000F3FAB74F3B689C0320D5C82006F0B7FD23
:10111000AE2009F04BF908B10EF03FFA86F8540200
:10112000C82006F0ACFDAF4B00210C22AE48C6F83B
:10113000583215F041F9022386F85F3210F02AFB8D
:1011400006F077FDA94B0344C6F86432A84CB5F805
:101150006001266895F85F11B6F9566095F8672129
:1011600095F8683100960BF097F9A14610B9012067
:1011700006F0D2FD98F80030102243F0020388F800
:1011800000309C4B0A265A6108221A61994C19209A
:10119000E368013E83F01003E360E36883F0080333
:1011A000E36006F06CFD012006F0AEFD192006F0AC
:1011B00066FD002006F0A8FD16F0FF06E6D1082324
:1011C0004FF010088C4E2361C4F810803368180764
:1011D00009D58A4BC4F814801B689847884B0122B4
:1011E000C4F810801A70874B874C1B68187B11F06D
:1011F00077FF794911F0C8FF04F0EAFD80462088A6
:1012000011F06EFF414611F0BFFF15F0E5FA7F4B7C
:101210001880208811F064FF01467D4812F068F8BC
:101220007C4912F065F87C4B6B4918607B4B7C4C19
:10123000D86811F0A9FF7B4911F0A6FF7A4BFF2176
:1012400018601B22204615F0B7F800222270326881
:10125000764B012112F0020F1970204604D0617004
:10126000032119700221A170510704D519784C1C73
:101270001C700324445412F00A0F0CD01A78042175
:101280008154511CC9B205244454D11C0232197036
:10129000D2B2062181543A68940604D519784C1CC0
:1012A0001C7007244454110608D5197809244454A5
:1012B0008C1C01311C70C9B20A2444546979082974
:1012C00001D00E2908D11C7804F1010E83F800E04A
:1012D0004FF00B0E00F804E01C784FF00C0C04F1FA
:1012E000010E5FFA8EFE12F4803F83F800E000F8F2
:1012F00004C009D004F1020C4C4C84F800C0484CE6
:101300004FF00E0C04F80EC0540708D51C7804F1F9
:10131000010E83F800E04FF0100E00F804E01C7896
:101320004FF0120C04F1010E5FFA8EFE12F4806F82
:1013300083F800E000F804C00ED095F81CC2BCF1A0
:10134000000F09D004F1020C384C84F800C0344C72
:101350004FF0130C04F80EC0940508D51C7804F166
:10136000010E83F800E04FF0150E00F804E0182994
:1013700013D11C784FF0160E00F804E004F1010EB2
:101380005FFA8EFE4FF0170C00F80EC004F1030E4A
:101390000234E4B283F800E00155110304D5197852
:1013A0004C1C1C7019244454D20504D51A78511CC5
:1013B00019701A238354002198221D4814F0FCFF51
:1013C0001C4C0EF06BFDB5F84E311B49A4F86C3285
:1013D000002333E01C00002035FA8E3CB0150020BD
:1013E000DC00002026040020DC150020404B4C00CF
:1013F0002C0B0020000C0140400200208C02002039
:101400008C0A0020DC0B002008000020000C0020CB
:101410000AE81C4100401C46D80A0020300B00207E
:101420001B1D0020BD378635D80B00201A1D00205B
:10143000281C002080130020940D00200B808B704E
:10144000D9F80010AB4A01F1790CB5F89401AA491A
:10145000C4F868220A6084F86E3282B2A749DFF8C5
:10146000F8A2D1F80080DFF8F4E208F596784EF89B
:10147000138023F80A200233242B8846EED1D7F8B4
:1014800000E000231EF4805F08BFB5F89A21AAF897
:1014900006201CF80320E2B90CEB0302917892F8C5
:1014A00003B0594515D239B1013901EB810101EB86
:1014B000810101F5617107E00BF1010B0BEB8B0B67
:1014C0000BEB8B0B0BF56171527889B204322AF861
:1014D00012100433502BDCD11EF0080F00F0BC803A
:1014E00095F88E31062B00F2B180DFE803F0040797
:1014F0000E35506F6F0045F2F05201E042F6F822CF
:101500007F4B1A800EF056FD9FE07D4B42F6F8228D
:101510001A8000010A2390FBF3F0A0F5B0600023CD
:10152000784A98500433482BFAD1774A774B4020B9
:101530009A60774B12221A7006F0E4FA002800F045
:10154000858001234FF0070B90F9000040218DE8C2
:101550000808704A704B73E0694B42F6F8221A8013
:101560006E4A6A4B40209A60694B10221A7006F04E
:10157000C9FA00286AD001234FF0000A90F9000050
:1015800040218DE80804664A4FF4E13358E05C4B93
:1015900042F6F8221A80634A5C4B40209A605C4B0A
:1015A00008221A7006F0AEFA00284FD001234FF03F
:1015B000000C90F9000040218DE808105A4A4FF4C1
:1015C000E1330EF0C7FBC4F8B8023BE04C4A42F6E8
:1015D000F82111804E490C22062B54480A7010D075
:1015E0000023037084F8BC3284F8BD321B2384F8D6
:1015F000BE32052384F8BF2284F8C0324FF4E135AF
:101600000DE00021017084F8BC1284F8BD12484D31
:10161000212184F8BE1284F8BF2284F8C032454AE2
:101620003A4B40209A6006F06DFA78B101234FF0F2
:10163000000E414A90F9000040218DE808402B46F9
:101640000EF088FB003018BF012028B9082004F0F4
:101650000DFC3A4A2D4B9A603B682D4A13F4804F9B
:1016600004D01221117036482849886042F20101E5
:10167000194089B1224944F620600880980404D5B5
:10168000082111702F4821498860D90704D50C2101
:1016900011702D481D49886011781D06A1F10401C3
:1016A000517040F194804FF0000A284DDFF8B0B03F
:1016B000514615222648C4F8C4B285F801A0C5F8E1
:1016C00004A0C5F808A014F077FE224BABF1050288
:1016D00050461A60049306F017F9D8F8002002204B
:1016E000EA6006F00FFA049B1946D8BB802004F08C
:1016F000BDFB64E026040020E4000020A8340020A4
:101700005C0C002038010020BD8900081C0000206E
:10171000361D0020298C0008A0860100AD89000834
:10172000798B0008998900082D8B00081C02002085
:1017300090D0030059890008118A00080D8A00081A
:10174000E9890008F5890008018A0008000B0020DB
:1017500048160020200B002056020020F015002023
:101760009004002090F805E06B78C24A4FF00C0C12
:101770000CFB032C9CF801C0F44504D00133DBB210
:10178000042BF2D900236B700B6890F900001B78D2
:10179000002B6B784FF00C0505FB03220CBF0121D9
:1017A0000321537800220091019202210EF0D2FA17
:1017B000B14B1860002899D0012006F0A5F8D9F89F
:1017C0000000AE4B00F5C5721A6004F005FD3B68E1
:1017D000980561D5AA4D069AAA4B2A609A6906987F
:1017E00042F001029A6103884FF01009ADF83030E1
:1017F000A54802230CA98DF832908DF8333004F0FF
:1018000038FE2B68A0485B880CA9ADF83030042363
:101810008DF8323004F02DFE2B680120197A04F087
:1018200013FE2B68994A5B684FF0000A536115A8B4
:101830008DF859904FF0010915938DF858A08DF847
:101840005A9007F011FC2B680DA85B7A8DF836A032
:101850008DF8343003238DF835308DF8379008F04B
:10186000C3F8D8F800208A4B3C3A1A603368C82283
:1018700043F0100333604FF4C873A4F8DE32854B95
:101880001A80854BE1221A80844B40F271121A8033
:10189000834B4FF0FF321A60824B834DC4F8E03225
:1018A0008033C4F8E4323B680026D9032E7040F13F
:1018B000B180DFF824B2DFF8CC8140F22A3A04F09C
:1018C000EFFB4FF0010952465846314685F800902B
:1018D00014F072FDD8F81830744843F00403C8F8C7
:1018E00018304023ADF8303018238DF833300CA970
:1018F00003238DF8323007F0E5FBD8F81C306C4D2F
:1019000043F00203C8F81C306A4BA8F694781A68B2
:10191000694BB2FBF3F22B88013A23F45C731B048E
:101920001B0C2B8092B21D23AB852A85A5F8149041
:101930002B8C23F001031B041B0C2B842B8CA988FC
:101940002A8B23F0020322F0730212041B04120CF0
:101950001B0C89B242F0600243EA0903A9802A8382
:10196000AE862B842B8B23F008031B041B0C43F047
:1019700008032B83B5F844306FEA43436FEA5343BF
:101980009BB2A5F84430D8F8A83F43EA0903C8F849
:10199000A83F404609F0ADFD15A809F07FFD474B73
:1019A000CDF858B0159380231A934FF480734FF0FD
:1019B000100B1B9340464FF4005315A91E93CDF80E
:1019C0005CB0CDF860A019961C961D961F9609F084
:1019D00072FDAB890DA89BB243F40073AB81D8F8BC
:1019E000003043F00203C8F800308DF834B08DF8B1
:1019F00035908DF836608DF8379007F0F5FF304B55
:101A00001A68304BF2500436802EF8D107F03AFEB7
:101A100007F038FE3B685A0540F18880D4F8146618
:101A2000294B04201E6006F06DF80421C4F8180646
:101A300006F042F8254B84F81C0608201E6006F0CC
:101A400061F8234B0821186006F036F8214D84F820
:101A50001D06002128462C2214F0AEFC8E236B704C
:101A60004FF07C08E0237D27EB7085F8008085F837
:101A70002B7033E070890108FC0A00209C0C0020C8
:101A8000F80A002000100240000C01400004014050
:101A9000F40A0020BC0A0020B40A0020C40A002076
:101AA000B80A0020CC040020F912002000080140F0
:101AB000000400405400002000366E013404004051
:101AC000988D0108FA120020DC1D0020301E002035
:101AD0007C1E0020001E002068160020854D2C2250
:101AE0000021284614F068FC8A236B701020A02384
:101AF000EB7085F8008085F82B70C4F8206606F03E
:101B000001F81021C4F8240605F0D6FF84F8280651
:101B10002020C4F82C6605F0F5FF2021C4F830061B
:101B200005F0CAFF84F834060EF050FC724B734D7A
:101B30001B78022B64D1724B00261A88322022F0C7
:101B400040021204120C1A801A884FF4805722F0B7
:101B500038021204120C1A801A8892B242F0400223
:101B60001A809F238DF834308DF835608DF83660FB
:101B70008DF8376006F083F88DF85560614E0422C9
:101B8000776115A80DA90FF055F837619DF856300B
:101B90009DF855201B0243EA02439DF8572013434A
:101BA000594A934219D00AD8A2F51A42033A9342ED
:101BB0000CD002F51A420232934209D01BE0534A7C
:101BC000934205D00132934207D014E0202300E075
:101BD00080232B804FF4807302E04FF480732B80BE
:101BE0006B80AB882A881B02AB605343EB600123F8
:101BF00084F8353604E000232B806B80AB60EB600B
:101C0000EE6816B3F60A37464FF00008B0450BDA17
:101C100008EB06056D100DF15409E8024946102243
:101C20000FF070F80F2805DCFF020CF057F8C4F82D
:101C300038760AE0002359F80320013256D10433E4
:101C4000102BF8D12E462F46E0E7314D314A2B6854
:101C500013F4002318BF0123137005F0EAFF2E4B85
:101C600018602E4B5A791946052A03D12C4B4FF494
:101C7000C8721A802B4B4FF47A721A802A4BC822F2
:101C80001A802A4B1A7842F008021A70284B1A78E8
:101C900022F002021A702A6840F6020313406BB168
:101CA0002448254B1860254B03201870244B012035
:101CB000187024480023038023480380930308D529
:101CC000042384F8603294F85F3243F0010384F80F
:101CD0005F328B6801222B601C4B1A701C4B1A78E8
:101CE00062F07F021A7021B0BDE8F08F05F10108A3
:101CF0003D46A8E7351E0020D934002028000020EA
:101D000000380040000C014018BA20001740EF00D6
:101D1000DC000020D11200202C0C0020A0020020AA
:101D2000AE0B0020D2340020D03400209A020020D4
:101D3000D834002018040020D41D0020341E0020B8
:101D4000580000208A1B00208C1B0020D01200208D
:101D5000AC340020A2492DE9F04F0A68A14802F5F1
:101D60009C4320330360A04B87B01E78C6B1194650
:101D70005B689A4240F20A81013E0E7006E12B68D0
:101D8000072C98BF195D994B88BF21461B6898485E
:101D90009847032C0CD9944A013602EB4404208165
:101DA000934BF4B21A78934DA2421A46E7D81EE03C
:101DB0002B6804F10E0203EB82029388D28800287C
:101DC000E9D0C01A4FF47A714843D31A90FBF3F06C
:101DD000084440F6C903984205DC40F2EE239842DD
:101DE000B8BF184601E040F6CA0080B2D3E7824B84
:101DF00042F201091B6803EA0909D9F101097F4B85
:101E000038BF4FF00009D3F800A07D4BB9F1000FA7
:101E100006D17C49097819707B4908787B4908709C
:101E20001E781EB1794B1E7886F001066E490F238D
:101E300081F82C30764B92F800801F780322B7FB94
:101E4000F2F202EB4202BA1AD2B201F12E0303EB14
:101E500042020024D5F800B04FEA480C0292254611
:101E600064455AD016B16B4BE05A00E03046BBF8DF
:101E70001430834206D8BBF81610814234BF0021CB
:101E8000012100E00021644BE9B953F825309A455F
:101E900002D2624BE05A1AE0EBB218468DE8081005
:101EA0000DF0FEF9009BDDF804C0032B0FD84FF0B6
:101EB000010E0EFA05FE4C4B93F82C1021EA0E0190
:101EC00083F82C1003E00AF5967143F81410B9F169
:101ED000000F1DD1029A444B04EB4401505293F879
:101EE000762022B9022F13D9012083F876004C4BBB
:101EF000581831F803E041884A337144B0F804E0DF
:101F0000714489B2E15208B2032390FBF3F080B22E
:101F1000424B0135E0520234A2E7334B374A93F883
:101F20002C10B1F10F077942794183F890103D4BA5
:101F300069B13D4909684E0109D41268D9689A60AF
:101F4000521AC82A1ED9012283F821201AE02E48ED
:101F5000012101702D48126801709968DA605B6890
:101F6000521A9A4203D92F4B002283F821200024D1
:101F7000444507DAE0B20DF093F9284B23F814003A
:101F80000134F5E7224B1A7801321A701A4E336881
:101F9000DD0405D5244B1B68DC0701D40DF0D4FF0C
:101FA0000F4B1D68134B19688B7A002B40D01B4ACE
:101FB000013B32F813000B7B1BB1C0F53B600830CE
:101FC00080B200B2A0F57A70B0F57A7FA8BF4FF466
:101FD0007A7020EAE07011F083F814495DE000BFE8
:101FE000B034002038020020BC190020240000205A
:101FF000361D0020E4000020DC000020A834002072
:10200000D0000020D80000200100002000000020A7
:10201000EE150020C4190020F01500205602002003
:10202000EA190020940D00204402002000007A44A8
:10203000326810043AD58C4AD2F89400281A002845
:1020400034DB05F59C402030C2F894008748C97AFB
:102050004479874830F8140080B290FBF1F092F890
:102060009810013101F00F0182F898100A4482F8AB
:10207000990018467F4A9A5C01331044102B80B2B5
:10208000F8D100B290FBF3F000B26428A8BF64203E
:1020900020EAE07011F024F8774911F029F9774926
:1020A00011F072F811F05CFA754B18803368754CBA
:1020B00013F4807F00F00081734B744F9D4203D96D
:1020C000BB780BB90123BB70BB78002B00F0F48008
:1020D0006E4B94F8008093F821506D4B691E4D4271
:1020E0001A684D41002DC2F380690CBF0322002203
:1020F000C8F380089A46029297F82030052B00F228
:10210000D680DFE803F0034E5378859EB8F1000FC8
:102110003AD0604B1868604B19880DF0EBF8012835
:1021200009D15E4B64211A684F4BD3F8AC30DB8881
:1021300001FB03233B61B9F1000F0DD04A4BD3F8EB
:10214000AC301B7943B105F0A9FB032387F820309D
:102150004FF47A73FB61CFE7002D40F0A8804F4B1E
:102160003A691968DFF824B1914209D905F096FB64
:1021700003228BF8202040F6B832CBF81C20BBE7B6
:1021800001228BF82020B7E74FF48060B9F1000FEF
:1021900002D007F02BF901E007F038F900233B618A
:1021A00085E0002D45D105F079FBA5E725B1052394
:1021B00087F82030012100E02946B8F1000F0DD04A
:1021C000344B1B68DA89364B1A805A809A80264A2B
:1021D000D2F8AC205288DA80022202922F4B1A6881
:1021E0007B699A4202D8B8F1000F5DD147F23053B3
:1021F000FB6103231EE0237843F0020323700DF0FC
:10220000A3FE264B1A68FB691344BB61042311E04B
:10221000224B1A688DB1BB699A4248D9214B1B7871
:102220001BB9DAF80030DA0741D4237823F002032F
:102230002370052387F820305EE7FB691344BB61F8
:1022400035E0164B08491A68D1F8AC306421DB88B8
:102250004FF4806001FB03233B61002387F82030AB
:10226000FB7007F0D3F847E7BC190020981B00204B
:10227000A81B0020551A00200000C84200C07F445F
:10228000381D0020D8340020404B4C00940D002015
:1022900044020020E8150020EC150020A83400209E
:1022A000560200201800002000297FF425AF029A72
:1022B00012B1104607F060F8994D05F5C370B5F8F6
:1022C0004E110DF017F8AB46804678B906F0AAF823
:1022D000944B0022C3F8B080C3F8B480C3F8B88030
:1022E000C3F8BC20C3F8C020C3F8C42023785B0720
:1022F00040D53368DF063DD58B4B1B78DD0639D4DE
:102300008A4B884D1F788FB19BF8DE31B8F1000FF2
:1023100016D173B1864B1A68D5F8C8309B1A002BBA
:1023200007DA0DF011FE85F8CC8023E0B8F1000F3C
:1023300019D1102007F020F8012385F8CC3019E0DE
:102340003BB17B4A4FF47A71126801FB0323C5F855
:10235000C83095F8CC306BB106F0F2FF714B00221B
:1023600083F8CC2006E095F8CC301BB106F0E8FFEE
:1023700085F8CC7000229BF8DC919BF8DD11BBF84E
:102380009671BBF898E113466A4D9B08505F023284
:10239000B842C4BF63F07F03DBB27045B8BF43F0FF
:1023A0004003082AF0D15F4D95F8CD209A4205D11F
:1023B00095F8CE20F92A04D8013200E0002285F8F1
:1023C000CE2085F8CD30594B5B4F1A789A46DAB952
:1023D0003B68D80708D5B8F1000F15D12378D90785
:1023E00012D50DF031FE0FE023785A070CD5534B70
:1023F0001B784BB1524BDB7833B911B10DF0A4FD12
:1024000002E0B8F1000FF9D095F8CE20454B142A20
:10241000DFF8488140F0B4809AF8002019F10009F3
:1024200018BF4FF001096AB393F8CD205F2A11D18C
:10243000227802F0040202F0FF0112B10DF084FDD7
:1024400008E00B200191009306F096FF0199009B94
:1024500083F8CE10B9F1000F14D095F8CD307D2B54
:1024600010D1237803F0040303F0FF0213B10DF041
:102470006BFD07E00B20019206F07EFF294B019ACD
:1024800083F8CE20237803F0040303F0FF00002B31
:1024900076D195F8CD30234A572B15D1294B4FF4DF
:1024A0007A721A8033681B0601D503F0B9FC264BFB
:1024B0001B68580702D5254A0A21118013F008032A
:1024C0005ED1234A13805BE03168490715D55A2B4A
:1024D00013D1204B197819B1187001221E4B1DE041
:1024E00092F8CF3083F0010382F8CF300BB10C208B
:1024F00000E00D2006F040FF42E05D2B00F0758506
:102500005B2B00F074855E2B2AD100F072BDA72BE7
:1025100040F05385044B1A7842F004021A702FE001
:10252000A0020020BC1900209A0200201800002000
:10253000A83400205602002044020020D0000020D1
:10254000940D0020D234002040020020D03400201E
:10255000180C0020D10B0020D20B00202C0B0020E7
:10256000562B01D10DF040FC9AF80030002B00F002
:10257000198595F8CD306F2B40F00E850DF064FD78
:102580003368580731D595F8CF309BB12378590778
:1025900010D5B04BB3F90620BBF896319A4209DD4D
:1025A0003B6813F0010305D1AB4A32211180AB4ADD
:1025B00082F8CF303B68DA030AD5A94B1A782AB9DA
:1025C000A84A127812B9A44A3221118001220BE0E4
:1025D000A44B1A784AB1227802F0040202F0FF01FB
:1025E0001AB91970A04B01221A70D8F80090002374
:1025F00009F1790A3B6009F17B0598460AF102036B
:1026000003EB080113F808204B7815F8010C9A42E7
:102610000AD2294605F01EF930B115F8023C012214
:102620009A403B6813433B6008F10408B8F1500F2F
:1026300005F10405E2D18D4B1F784FB18C4FDFF8C7
:1026400050823B688B4D13F0020F40F03F8337E31D
:1026500009F1C90809F1CA0508F10103D919DA5DC0
:102660004B7815F8010C9A4229D2294605F0F2F868
:1026700028B395F802E028797F4B0EF1FF3E4FF02A
:102680000C0C0EEB4E0E0CFB00FC9E44734B95F8AD
:1026900003A003F1D00909EB0C02516871450ED07B
:1026A000002109F80CA0C2F804E09160012202FAAE
:1026B00000F093F8002122EA000083F800010637B9
:1026C000482F05F10605C7D16C4BDFF8C8A11F687C
:1026D0006B4B4FF000091B6802936A4B1B78039306
:1026E000DAF80030002B00F0E28293F80080B8F1B5
:1026F000000F00F0DC82DAF8042002998A1A002A1E
:102700000DDB01F5FA72012101FA09F1CAF8042082
:10271000524A92F8000120EA010182F80011039A5E
:10272000002A00F0C4821AF8041C58780431C9B297
:102730004A4A002840F07B82464830F9111052483E
:10274000B0F8940100F1C805A94201DD9D7815E0BB
:10275000C838814202DA9D786D420FE0012303FA06
:1027600009F33E4991F8002122EA0303029A81F815
:10277000003102F5FA73CAF8043098E292F8003199
:1027800043FA09F3DB0700F19282002DCCBF02204F
:10279000012006F013FE08F1FF33132B00F27E82B6
:1027A000DFE813F0140021002E003E007A008100C3
:1027B000E5004901AD01E40114027C023E004D0038
:1027C0008100E5004901B7001B017F013B783846D5
:1027D0001D44FA2DA8BFFA2525EAE5753D7005F0E0
:1027E000DBF901201AE07B7838461D44642DA8BF30
:1027F000642525EAE5757D7005F0CEF902200DE02F
:10280000FB7838461D44642DA8BF64251F4B25EA7C
:10281000E575FD70196805F07BF903202946D2E1C2
:1028200079790D2029446429A8BF642121EAE17146
:1028300079710BF02BFAB8F10D0F00F02F82397976
:102840000E2029446429A8BF642121EAE17139716D
:10285000B9E100BF56020020B00B0020BC190020D7
:10286000D00B0020D10B0020D20B0020D63400204A
:102870004402002048020020B0A10108A80C00205A
:10288000A8340020D0000020A0020020EC1C002072
:1028900040020020901A0020B9790520294481F3D4
:1028A0000801B9718FE1A74B1B681A78022A21D160
:1028B0002846009310F014FCA34910F019FD009B6A
:1028C000596A10F059FB0021019010F0FBFD019AAC
:1028D000009B40B910469D4910F012FE019A009BE2
:1028E00010B19A4A00E000225A620F2011460BF004
:1028F000E1F90AE099780F202944C829A8BFC82126
:1029000021EAE17199700BF0C1F9B8F10F0F00F0F5
:10291000C5818C4BD3F8008098F80030022B1AD177
:10292000284610F0DDFB884910F0E2FCD8F82010B2
:1029300010F022FB0021054610F0C4FD30B92846F6
:10294000824910F0DDFD10B1804D00E00025C8F88F
:10295000205012205BE198F8011012202944C82968
:10296000A8BFC82121EAE17188F801102BE1754B5D
:102970001B681A78022A21D12846009310F0B0FB78
:10298000724910F0B5FC009B196B10F0F5FA0021AC
:10299000019010F097FD019A009B40B910466B49D9
:1029A00010F0AEFD019A009B10B1684A00E00022D1
:1029B0001A63102011460BF07DF90AE0197B1020F4
:1029C0002944C829A8BFC82121EAE17119730BF075
:1029D0005DF9B8F1100F00F061815A4BD3F8008017
:1029E00098F80030022B1AD1284610F079FB57498D
:1029F00010F07EFCD8F82C1010F0BEFA002105462D
:102A000010F060FD30B92846504910F079FD10B142
:102A10004E4D00E00025C8F82C501320F7E098F840
:102A20000B1013202944C829A8BFC82121EAE1714D
:102A300088F80B10C7E0434B1B681A78022A21D193
:102A40002846009310F04CFB414910F051FC009BCC
:102A5000D96B10F091FA0021019010F033FD019A2A
:102A6000009B40B91046394910F04AFD019A009B7D
:102A700010B1364A00E00022DA63112011460BF053
:102A800019F90AE0997D11202944C829A8BFC82155
:102A900021EAE17199750BF0F9F8B8F1110F00F026
:102AA000FD80284BD3F8008098F80030022B1AD113
:102AB000284610F015FB264910F01AFCD8F83810FB
:102AC00010F05AFA0021054610F0FCFC30B92846F7
:102AD0001E4910F015FD10B11C4D00E00025C8F88E
:102AE0003850142093E098F8151014202944C82970
:102AF000A8BFC82121EAE17188F8151063E0114BE5
:102B0000D3F8008098F80030022B23D1284610F02B
:102B1000E7FA0D4910F0ECFBD8F8281010F02CFA69
:102B20000021054610F0CEFC30B92846074910F0C8
:102B3000E7FC10B1054D00E00025C8F82850092039
:102B400065E000BFF01C0020000020410000C842EA
:102B500000007A4498F8031009202944C829A8BF26
:102B6000C82121EAE17188F803102CE0AD4BD3F8BD
:102B7000008098F80030022B1AD1284610F0B0FAE5
:102B8000A94910F0B5FBD8F8341010F0F5F9002180
:102B9000054610F097FC30B92846A34910F0B0FC68
:102BA00010B1A14D00E00025C8F834500A202EE0F5
:102BB00098F80D100A202944C829A8BFC82121EA85
:102BC000E17188F80D100BF061F867E0954BD3F8D0
:102BD000008098F80030022B1DD1284610F080FAB2
:102BE000924910F085FBD8F8401010F0C5F900218B
:102BF000054610F067FC30B928468B4910F080FC80
:102C000010B1894D00E00025C8F840500B2029463E
:102C10000BF050F842E098F817100B202944C8290F
:102C2000A8BFC82121EAE17188F81710CBE7012875
:102C300034D198787E4B33F91110B1F5617F05DB03
:102C400040F633039942B8BF0B4601E04FF461737D
:102C5000B8F10C0F22D14FF49665A3F5617395FB83
:102C6000F0F593FBF5F592F80131EDB2AB4215D0DA
:102C7000032D94BF2B46022382F8013108FB03B3D6
:102C80006C4A03F2B673136004F0A0FF4046294675
:102C90000AF0FCFF681CC0B206F090FB012202FAA9
:102CA00009F2654B93F800110A4383F8002109F1FA
:102CB0000109B9F1040F0AF10C0A7FF411ADBDE46A
:102CC0003368D80510D55D4BDB786BB1D8F8003090
:102CD000990709D52B8813F001090AD105F0A2FB49
:102CE000012006F083FB04E0012006F08FFB0123A6
:102CF00000E000233A6852070CD55BB1012006F0D2
:102D000085FB2B889B0708D405F08CFB022006F07E
:102D10006DFB02E0022006F079FB2B88484A13F095
:102D2000030F4FF0100114BF51611161D8F800205A
:102D300012F00A0F23D03A68D00609D559070AD4F1
:102D4000042006F053FB3F4B1A883F4B1A8002E0E9
:102D5000042006F05BFB3B689A0606D52B885B06D1
:102D600006D4402006F042FB02E0402006F04EFB75
:102D70003B68580603D5334B1A88344B1A80D8F871
:102D80000030990608D43B681A0540F1D7804FF40B
:102D9000807006F02BFBD5E02D4B1B789B0740F194
:102DA00093802C4B1B78042B40F28E803B6813F4ED
:102DB00000790ED02B88DD0679D4102006F016FBA2
:102DC000202006F023FB2448011D09F0B5FF022254
:102DD00068E0B5F8008008F010081FFA88F343B1E6
:102DE000102006F013FB1D4B4FF0010883F80090F4
:102DF00000E098463B6858054DD5194B1B685A8929
:102E0000184BB3F900100029B8BF494291422BDAA0
:102E1000B3F90230002BB8BF5B429342ACBF002332
:102E2000012322E0F01C00200000C84200007A4488
:102E300056020020A80C0020BC190020940D002090
:102E4000000C0140180C0020880C0020801B002082
:102E50009A020020240B0020F81C0020081D0020EE
:102E60009C0C0020700C00200023A3B12B88990635
:102E70001FD4202006F0BAFA7B4B7C481A685B68A6
:102E8000011D4360026009F057FF794B4FF00108C4
:102E900083F800800DE02B889A060AD5202006F0E2
:102EA000B5FA0022724B4FF001081A7001E04FF0A2
:102EB0000008704D95F80231B3B90E2006F05CFAA7
:102EC000012385F802310FE02B8803F03003002B3B
:102ED0003FF459AF102006F099FA202006F096FA38
:102EE000634B00221A7003E0B8F1000F3FF44BAFC0
:102EF00000231A466049002050526049604D5052EC
:102F0000604905EB030E5052002159510232CEF8B0
:102F10000400CEF8081005F1280E503543F80E10C5
:102F200059519E441D44042ACEF80400CEF80810DE
:102F30006860A96003F11403DCD124E74FF48070CA
:102F400006F064FA504A53791546082B01D00E2B2F
:102F500002D1402006F05AFA33685B0540F18180C7
:102F600095F81C321BB9237813F0040F02E03B687C
:102F700013F4002F0BD03F4B002283F87C213C2020
:102F800008F05CFA00286CD006F050FAF7E70DF074
:102F90001DFA0CF083FF64E0B9F1000F02D07E2B24
:102FA0003FF4ECAA95F8CD30972B7FF4B0AA374BBD
:102FB0004FF4C8721A80FFF7E3BA0022BB2B0592C8
:102FC00001D1022303E0B72B04D14FF6FE73ADF815
:102FD00016301EE0BE2B01D1022303E0BD2B2FD102
:102FE0004FF6FE73ADF8143013E0012002E002202A
:102FF00000E003205FFA80F909F1FF338BF8B43762
:1030000009F07EF909F03CFF484606F0D7F9FFF7D2
:10301000B7BAD8F80030BDF81410B3F858200A44F5
:10302000A3F85820BDF81610B3F85A200A44A3F8A4
:103030005A200CF0D9FE002385F8CE30FFF7A0BA55
:10304000792B04D1124BDA7822F0010206E07A2BB8
:103050007FF496AA0E4BDA7842F00102DA70FFF79D
:103060008FBA07B0BDE8F08FF01D0020001D0020D2
:10307000081D0020BC190020CC340020A00C00202A
:10308000C01A0020A40C0020A0020020AE0B0020DB
:10309000DC150020C44A2DE9F04FC44BD2F800E003
:1030A000B3F90600BEF80A308FB098420FDBB0F5D6
:1030B000FA6F9EF8077007DAC21A5743A3F5FA634E
:1030C00097FBF3F7643703E0C7F1640700E0642778
:1030D000B74B0021B3F8942193F95E310292B54ABF
:1030E0009BB2D2F800C0039364460A46AF4B029DE0
:1030F00031F903B0C5EB0B0303F2F31640F2E635EA
:10310000AE4203D8002BB8BF5B4201E04FF4FA7324
:10311000022A4FF06406A84D2ED09CF81181B8F118
:10312000000F04D04345CCBFC8EB0303002393FB3F
:10313000F6F86FF0630A35F818900AFB083A08F1C0
:10314000010835F918800FFA89F5C5EB080505FB6C
:103150000AF595FBF6F5A944984D21F805900EEB7C
:1031600002052D796B43964D93FBF5F364339BB2C7
:103170007B4393FBF6F630E09CF81281B8F1000F28
:1031800004D04345CCBFC8EB0303002393FBF6F602
:103190006FF0630905EB460809FB063A05EB4606A6
:1031A000B8F90E80B6F91050844EC8EB050505FB42
:1031B0000AFA039D9AFBF9FAC8EB0A0808FB05F81E
:1031C000A6F804809EF8065083EAE376A6EBE37641
:1031D0006E437B4D96FBF5F664360CEB020898F8CF
:1031E0000190754B06FB09F94FF0640803F11C05CB
:1031F00099FBF8F902F8059094F80B9003F11F057C
:1032000006FB09F999FBF8F902F8059094F8159076
:1032100003F1220506FB09F6022A96FBF8F656553D
:103220001D4616BF253383F82780D754029B634E73
:103230009B4502DA735A5B4273520231062902F14E
:10324000010204F101047FF451AF594CB4F89631F6
:10325000984205DBB0F5FA6FA8BF4FF4FA6000E0C2
:103260001846C01A4FF47A725043C3F5FA63B0FBA4
:10327000F3F34FF0640E93FBFEF205EB42016FF0A7
:10328000630000FB0233098D05EB4202B2F92A000C
:103290000AB2821A534393FBFEFE4A4B71441B88C9
:1032A000F1805906454F3ED5474B1888424BB3F83D
:1032B0004030C01A00B20FF013FF44490FF064FF12
:1032C000804602F085FD8146404602F00DFD8046B5
:1032D000B7F902000FF004FF8246B7F900000FF0C3
:1032E000FFFE494683460FF04FFF414603465046D6
:1032F00001930FF049FF019B014618460FF03AFE7B
:1033000010F008F94946388050460FF03DFF41461D
:10331000814658460FF038FF014648460FF02CFE14
:1033200010F0F8F878802A4B1A689A4612F0020FCB
:1033300000F09780274B6A6C1B6845F207219A1AA8
:103340008A421D4F40F38D807B6406F02FFB224B99
:10335000DFF890801A789946032AB8F8003043D1F4
:103360000A2B4DD90023282089F8003004F087FC6F
:1033700006F01CFBB7F8480005F0A8FF174B1849EA
:103380001B68DA7890FBF2F0421C082A28BF08225A
:103390000A7059791B7992B251435A43A7F84A10DF
:1033A000A7F84C202CE000BFA80C002056020020FB
:1033B000A00200202C0B0020401B0020700C0020DD
:1033C0000CFEFFFF48020020180C002035FA8E3C4E
:1033D000DC000020B0340020341E0020D41D00206A
:1033E00058000020D81D00200A2B09D80323B54A15
:1033F00089F8003000231370A7F84A30A7F84C3042
:1034000099F80020B04B012A0DD002D3022A1ED019
:1034100027E0B5F84A20B8F800309A4221DD0123B0
:1034200089F8003011E0B8F80020B5F84C1091424E
:1034300002DD02221A7011E0A449B1F84A100131EC
:103440008A4202DD00221A700BE0082007E0B5F87E
:103450004C30B8F8002001339A42E0DC072005F038
:103460008BFFDAF800703A0577D5994B296D1A6809
:10347000964BC1EB020A45F207218A456DDD1A65BC
:10348000944AB6F90690D2F80080B4F84E1198F834
:103490000A20A9F57A79012A8F4E03D046D3022A51
:1034A00023D045E093F86520596D03EB4202B2F852
:1034B0006800082291FBF2FE80B2CEEB01010144CC
:1034C00091FBF2F2A3F8700092B2596540F6E44322
:1034D0005343B8F808004FF47A72C0EB13335343E8
:1034E000B8F9062093FBF2F321E07C4BB8F808B062
:1034F0001B78C6F800B05B071AD579480BF0FAFEC6
:1035000020B917F0100F18BF4FF0000909FB09F29E
:10351000322392FBF3F39944B8F906304FF47A72F0
:1035200003FB09F393FBF2F35B4400E000233360F9
:103530003368D5E91E0103FB0AFA4FF47A739AFB4C
:10354000F3FA10EB0A0041EBEA710023C5E91E0112
:10355000644A10F025F8644B1860644B1A6898466A
:1035600012F4805F26D03E0621D5614B1B78980768
:103570001DD5604B1978042919D900235E4E052208
:103580009A55981C1E440A27122BC2B2777004D099
:10359000B1EB520F0346F1D800E014222A44322343
:1035A00082F87F30FF2382F880300F2000E00A206D
:1035B00005F0E2FED5F89820444E002A4ED04F4B3D
:1035C000D6F89C1018689946814247D896F8A01002
:1035D000B6F8A2305268C9B9012786F8A070D35C4A
:1035E00003B3384604F090FB86F8A47005F084FE1F
:1035F000B6F8A230B3B9D6F898301B78053BBB4279
:1036000010D804F016FBC6F8A8000BE0002786F8D7
:10361000A070D35C33B1384604F076FB86F8A47012
:1036200005F06AFED5F89820B5F8A2105268274B2D
:10363000525CFE2A03D10022A3F8A2200EE0FF2A4A
:1036400002D105F07DFE09E0D9F800000A2606FB4C
:1036500002020131C3F89C20A3F8A2101F4E337858
:10366000590703D5264B08225A6162E0D8F800209A
:10367000D2075CBF43F0010333701D4B1B781B075F
:1036800003D4337823F0010333701E4B1B685F07AC
:1036900002D51D4A128862B91C4A12880AB19807DD
:1036A00005D41B4B1B88003318BF012300E0012306
:1036B00083B3022385F8A430337823F001033370F9
:1036C0002EE000BF58000020341E0020401B0020C8
:1036D000B0340020D41D0020E01D0020D83400208C
:1036E00026040020407E0500E41D00204402002046
:1036F0009A020020240B0020C01B0020A8340020C8
:10370000000C014040020020D0340020AE0B00200D
:10371000D23400203278D10758BF022385F8A43074
:1037200004F087FAD5F8AC30C01A002801DB05F0A8
:10373000E3FD0CF04BFEBA4B1A78002A78D0D5F88E
:10374000B030002B00F0D186D5F8B000B54C04F0B5
:1037500088FB002800F0C986D4F8B00004F07CFB98
:10376000092801D03F2855D14FF00008D5F8B460A2
:10377000AD4F44462EB1AD483968324612F064FE72
:1037800010B9B84604B93C46A94B10379F42F1D353
:1037900004B3D4F800E0D8F800C0D5F8B430A1489C
:1037A0001EF803701CF80310B94213D15A1C59B902
:1037B0002D2B09D8C0F8B42003442027024483F8F5
:1037C000B87082F8B81005E02B4483F8B870C5F8DB
:1037D000B420E2E7D5F8B4300BB1444510D0954899
:1037E00005F0B4FE444507D854F8100B05F0AEFEC2
:1037F000092005F0A4FEF5E78F4805F0A7FE002696
:10380000D5F8B4309E429FD2884B985D05F097FE64
:103810000136F5E7D4F8B430002B40F09286042846
:1038200040F0898604F1B8000BF02CFE00F05DBE7C
:10383000824F97F84A30012B40F05286DFF8008221
:10384000DFF818923B68C8F80070C9F80030DFF85C
:103850000CA25246106804F004FB002800F03386E6
:10386000DAF8000004F0F8FA754A8346136893F812
:1038700048201AB924283BD1012236E0012A04D17C
:103880004D280CBF022200222FE0022A04D13C283E
:103890000CBF0322002228E0032A09D140284FF060
:1038A000000222D81A71DA715871987104221CE052
:1038B000042A08D19A7983F8490080EA020B83F838
:1038C00006B0052211E0052A39D159791A799142B9
:1038D000997906D941409971511C19711344187294
:1038E0002DE081420CBF0622002283F8482026E00A
:1038F0003278544B520722D4BBF1230FDAF8002060
:1039000012D14748012101704F48C5F8B020C5F8D1
:103910008021019305F01AFE474805F017FE019B30
:103920001A7842F002021A70D5F884311B785B4590
:1039300005D1464A464B1A60464A474BDA60404A30
:10394000136893F848A0BAF1060F80D193F84900A4
:1039500000F0ACFE002840F0AF85394B1A6892F8B1
:1039600049B0BBF14C0F00F0928400F2C580BBF16E
:10397000350F00F04C8242D8BBF12B0F00F05E8473
:1039800024D8BBF1250F00F0348405D8BBF1230FF8
:1039900000F03C8100F0CCBDBBF1270F00F030847B
:1039A000BBF1290F40F0C48505F0B6FDA4F87E01F7
:1039B00005F0B2FDA4F8800105F0A3FD84F88201B2
:1039C00005F0AAFDA4F8840100F073BDBBF12F0F30
:1039D00000F0F48405D8BBF12D0F00F0338400F023
:1039E000A7BDBBF1310F00F0FE84BBF1330F40F0F7
:1039F0009F8505F086FD84F8900100F05ABDBBF16B
:103A0000410F00F095843DD8BBF1390F00F00584DB
:103A100026D8BBF1370F00F0988400F089BD00BFB5
:103A2000D6340020401B0020ECA10108F81B002028
:103A3000CCA3010808BB01080DBB0108281C00200D
:103A40008C1E0020D83400203DBB0108EFBEADDE47
:103A5000F04F00200400FA0500ED00E0901E002069
:103A6000BBF13C0F00F01381BBF13E0F40F06085CD
:103A700005F047FD84F8DE0105F043FD84F8DD0123
:103A800000F017BDBBF1440F00F0E18427D8BBF173
:103A9000430F40F04D8505F034FD0023A3606071B5
:103AA00005F044FDA3681843A06005F02AFD84F8E2
:103AB0008E0105F031FDA4F8580105F02DFDA4F8A4
:103AC0005A0105F029FDA4F85C0105F025FDA4F8D4
:103AD0007E0105F021FDA4F8800100F0EABCBBF1F5
:103AE000480F00F01E83BBF14A0F40F0218505F01E
:103AF00013FDA08100F0DDBCBBF1D10F00F03C83D1
:103B000028D8BBF1CC0F00F0AA8113D8BBF1C80FA5
:103B100072D005D8BBF14E0F00F0C68300F008BD8F
:103B2000BBF1C90F00F00083BBF1CA0F00F0BE80EB
:103B300000F0FEBCBBF1CE0F00F0E582C0F0DA82EF
:103B4000BBF1CF0F00F0FA81BBF1D00F00F0C782BC
:103B500000F0EEBCBBF1D90F00F0B08210D8BBF181
:103B6000D30F43D02FD3BBF1D40F00F02C82BBF185
:103B7000D60F08BF4FF0000900F01A8200F0D8BC41
:103B8000BBF1F20F00F06F8213D8BBF1EF0F40F0E2
:103B9000CF84DFF88893D9F800A005F0BDFCAAF81F
:103BA0005A00D9F8009005F0B7FCA9F8580000F0C9
:103BB00080BCBBF1F30F00F04E84BBF1FA0F00F0B4
:103BC000AC8200F0B5BC337803F0040303F0FF09C6
:103BD000002B40F06E8405F094FC022884F8B407B2
:103BE00040F28382C84B83F8B4977EE205F094FCE0
:103BF000C64B188000F05DBC92F805904FEA590959
:103C0000B9F1120F1CD84FF0000A1DE005F079FC45
:103C1000132815D8DFF804A300F11E0BDAF80030E2
:103C200003EB8B0B05F06DFCB94B0BF1010903F5B0
:103C3000A872197A814200F0CB800C339342F8D1FC
:103C400007F0F8FB00F035BCCA4507D205F064FC6C
:103C500005AB23F81A000AF1010AF5E700234B45EA
:103C6000AC4A06DA05A931F8131022F81310013313
:103C7000F5E709F1FF3902EB49032232934203D001
:103C8000002123F8021FF9E70122A34B43E2DFF8EA
:103C90008C92D9F800A005F034FC8AF80000D9F81D
:103CA0000030187804F0ACFB00F003BC9B4B1A68A2
:103CB00099461278022A6ED14FF00009DFF85CA213
:103CC00009F1080BDAF80030019305F01AFC0FF047
:103CD00003FA93490FF00CFB019B43F82B00DAF831
:103CE00000B005F00EFC09F10A030BEB830B0FF09B
:103CF000F3F98C490FF0FCFADAF80030CBF8040045
:103D0000019305F0FEFB0FF0E7F987490FF0F0FA99
:103D100009F10E0B019B09F10109B9F1030F43F8F9
:103D20002B00CBD1B9F1070FDAF800B01AD105F0AA
:103D3000E8FB0FF0D1F97A490FF0DAFACBF844003A
:103D4000DAF800B005F0DDFB0FF0C6F974490FF0AA
:103D5000CFFACBF84800DAF800B005F0D2FB8BF8C8
:103D60004C0012E005F0CDFB0BEB09035870DAF8BC
:103D700000B005F0C6FB0BEB0903D872DAF800B00F
:103D800005F0BFFB0BEB0903587509F10109B9F107
:103D90000A0FC7D18DE34FF0000AD9F800B005F043
:103DA000B0FB0BEB0A035870D9F800B005F0A9FB83
:103DB0000BEB0A03D872D9F800B005F0A2FB0BEBAD
:103DC0000A030AF1010ABAF10A0F5875E5D170E346
:103DD0001B788BF8013005F094FB89F8010005F0A1
:103DE00090FB89F8020005F08CFB89F80300DAF8F3
:103DF00000004E4BC5F8B00100217930C5F8AC3158
:103E000003F006FF4A4B80F00100187051E305F003
:103E100078FB0B283FF614AF0AFB00FB3F4B0BF17E
:103E2000C80B1B689B4405F06CFB03283FF608AFEA
:103E30008BF8060005F065FB8BF8010005F061FBCF
:103E40008BF8020005F05DFB8BF8030005F059FBD1
:103E50008BF8040005F055FB8BF8050029E3537936
:103E6000092B7FF6EDAE3348D0F8009005F049FB02
:103E7000304A89F80000D2F8009005F042FB89F83A
:103E8000010005F03EFB2B4A6428A8BF642013689C
:103E9000187105F036FB274A6428A8BF6420136810
:103EA000587105F02EFB234AFF28A8BFFF20136896
:103EB000987105F026FB1F4B642828BF6420D3F8B7
:103EC000009089F8070005F01CFB89F802001948EA
:103ED000D0F8009005F015FB164A89F80300D2F8D7
:103EE000009005F019FBA9F80A00134803685B79F4
:103EF0000A2B40F2DE820F4BD3F8009005F001FB55
:103F000089F80800D5E200BFA0020020880C00203C
:103F1000CCA30108C81C00201D0200202C0B00208F
:103F2000000020410000C84200007A44E003002065
:103F300018000020A80C00208C1E002005F0ECFAD0
:103F40006FF4AF6E00EB0E039BB2C62B98BFA4F8C4
:103F5000940105F0E1FAA4F8400105F0DDFAA4F8B7
:103F6000420105F0D9FAA4F8440105F0D5FAA4F805
:103F7000D60105F0C6FA84F8EB0105F0C2FA05F0A7
:103F8000C0FA84F8EC0105F0BCFA84F8830105F06E
:103F9000B8FA84F8900105F0B4FAD34BD3F8009046
:103FA00005F0BAFA00EB80004000A9F8560034E1B1
:103FB00005F0B2FACD4B23F8090009F10209B9F175
:103FC000100FF5D175E253790F2B7FF439AE05F060
:103FD00098FA072881463FF633AEDFF80CA3DAF8EB
:103FE00000B005F099FA0E2303FB09F90BEB090366
:103FF000A3F81901DAF800B005F08EFA0BEB09030B
:10400000A3F81B01DAF800B005F086FA0BEB090300
:10401000A3F81D01DAF800B005F073FA0BEB090301
:1040200083F81F01DAF800B005F06BFA0BEB090317
:1040300083F82001DAF800B005F063FA0BEB09030E
:1040400083F82101DAF800B005F05BFA0BEB090305
:1040500083F82201DAF800A005F068FA0AEB0903F8
:10406000C3F8230125E205F04CFA0F2881463FF6FC
:10407000E7AD05F046FAC9EBC90904EB090383F87B
:10408000D00003F1D00905F03CFA89F8010005F0F1
:1040900038FA89F8020005F034FA89F8030005F0CF
:1040A00030FA89F8040005F02CFA89F8050005F0CB
:1040B00028FA89F8060004F0F9F8FAE105F02CFA7C
:1040C000A4F8480105F028FAA4F84A0105F024FAFA
:1040D000A4F84C0105F020FAA4F84E01E9E1337888
:1040E000590700F1E6810DF0A1FF08F009F908F089
:1040F000C7FEDEE133785A0700F1DB817C4B4FF4D9
:10410000C8721A80D5E133785B0700F1D281794B10
:104110001A7842F004021A70CBE133785807E4D5DC
:1041200006E209F021FDC4E105F0EBF9714B1A78C4
:1041300010B142F0020201E022F002021A7005F012
:10414000E0F96D4BDFF8C491187005F0EFF9C9F88C
:10415000000005F0EBF9C9F8040005F0DDF9674B44
:10416000188005F0D9F9664B188095F8B43143F002
:10417000020385F8B4319CE105F0C3F9019005F024
:10418000D5F9834605F0D2F9824605F0CFF981468C
:1041900005F0C2F905F0C0F905F0B3F9019B9BB930
:1041A0001020C5F8B8B1C5F8BCA105F02FF9514BE6
:1041B0001A7842F001021A70B9F1000F00F079810B
:1041C000504BC3F8009074E1102B40F07281C5F899
:1041D000C0B1C5F8C4A1B9F1000F02D0494BC3F872
:1041E000009049480223011D85F8C83108F0A4FD5C
:1041F0005FE1A06005F09AF9A3681843A06058E158
:1042000005F08AF9A4F8580105F086F9A4F85A01D6
:1042100005F082F9A4F85C014BE105F072F984F82D
:10422000780105F06EF984F87C0105F06AF984F8EC
:104230007B0105F066F984F87D013AE105F061F94A
:10424000607136E105F05DF984F88E0105F064F9DE
:10425000A4F8980105F060F9A4F8940105F05CF960
:10426000A4F8960105F04DF9D8F8003084F88F01D4
:104270005B79DFF89C90082B40F21B8105F04CF92C
:10428000A9F89A0105F048F9A9F89C0111E105F097
:1042900038F984F8D40105F034F984F8D50105F033
:1042A0003BF9A4F8D60104E192F805B00323BBFB67
:1042B000F3FBBBF1120F3FF6C3ACDFF854904FF0A5
:1042C000000ADA4580F0F58005F01BF989F89E01B7
:1042D00005F022F940F2ED2398421BDD40F6CA03B7
:1042E0009842A8BF184617E02C0B0020C60D0020EE
:1042F000AE0B00209A020020240B0020EA1D0020B3
:10430000E81D00204C020020001D0020F01D0020B0
:10431000A002002040F2EE20A0F2EE20192390FB34
:10432000F3F089F89F010AF1010A09F10209C8E7CF
:10433000814605F0E6F804EB090309F10109B9F13A
:10434000080F83F88601F4D1B3E053794FF0070AE0
:10435000B3FBFAFACAEBCA029B1A13F0FF0F7FF401
:104360006FAC5FFA8AFABAF1000F00F0A28005F094
:10437000C8F85FFA80FB4FFA8BF003F089FB0AF173
:10438000FF3A5FFA8AFA814600283FF459AC80F878
:1043900000B005F0C1F8A9F8020005F0B2F889F8FC
:1043A000040005F0AEF889F8050005F0AAF889F8D0
:1043B000070005F0A6F889F80600D4E7DFF8E892D0
:1043C00009F1400A05F0A8F8A9F8AC0205F099F83F
:1043D00089F8AE0205F095F809F1040989F8AB02F5
:1043E000D145EFD165E005F08CF81F283FF628ACE9
:1043F000D8F800305B79082B7FF422AC00F18A0AF0
:1044000005F08AF804EB8A0A00F03F00AAF80600DB
:1044100005F082F8BAF80620800100F4FE53134339
:10442000AAF8063005F06DF800018AF8040005F0DE
:1044300068F89AF8043000F00F0018438AF8040076
:1044400005F05FF88AF8050001F02AFE31E001234B
:1044500085F8C9312DE005F054F8FF28824609D1CE
:1044600003F0A1FA012005F049F895F8CA0104F01B
:10447000FDFF21E095F8CA219042BFF4E1AB002096
:1044800005F03CF805F004F8D8F80020106803F0B7
:10449000D3FCD9F8000004F0C9FF50460CF058FCDA
:1044A0000A2003F0ECFB0BF0F9FCD8F8002082F8AE
:1044B00049B0002005F022F804F0EAFFD8F80030F7
:1044C000002283F8482095F8C9314BB1386803F0D1
:1044D000B3FC0AF099FF03F0DCFB5F4A5F4BDA6044
:1044E0005F4B4C379F427FF4A4A95E4B1B68990633
:1044F00016D55D4BD5F8CC211B689A1A002A0FDB24
:104500005A4A1278042A0BD9594A03F5123303F593
:10451000F873C2F8CC31574BDA6882F01002DA60D7
:10452000554B9B68002B00F09380544898478FE0D0
:1045300006F080FFC0E70C2825D1514805F006F8A9
:104540001FE00C28F9D00A2821D1494C4D4804F12C
:10455000B80604F0FBFF3046232111F060FF10B1D4
:10456000801BC4F8B400D5F8B430BBBB464800216A
:104570003022C5F8B43011F01FFF44480378002BF7
:10458000B3D043480FE07F2814D1FFF7DDB80D28E2
:10459000DBD07F280BD1013BC4F8B4300022234488
:1045A0003C4883F8B82004F0D1FFFFF7CDB82F2B9B
:1045B0003FF6CAA8A0F12002D2B25E2A3FF6C4A8F4
:1045C00013B920283FF4C0A85A1C2B44C5F8B420C6
:1045D00083F8B80004F0B3FFFFF7B6B8591E705C5B
:1045E000234A202801D10B46BFE7C2F8B430134458
:1045F000002283F8B820284B284CD3F800A0D4F828
:104600000090DFF86C80484611F016FF08F1B807FB
:10461000064649463846324611F016FF204B38B957
:1046200008EB060292F8B82052445278520703D0A1
:1046300010349C42E3D306E09C4204D2701CE36831
:104640003844984702E0174804F080FF00238DE7C4
:104650000FB0BDE8F08F00BF0400FA0500ED00E0E8
:10466000C01C002040020020B0340020240B002099
:10467000401B0020000C0140300B0020101D0020CA
:1046800012BB0108D6C80108F81B0020D634002050
:104690000DBB010839BB010860000020ECA1010836
:1046A000CCA301081DBB0108A00200202DE9F04F9A
:1046B0004B28ABB0044600F0FB8500F2B4803028F4
:1046C00000F08A8651D8222800F0508423D803288D
:1046D00000F05E8114D8012800F04E81022840F0DD
:1046E000FC86042004F00AFF432004F0BFFE4C20A7
:1046F00004F0BCFE462004F0B9FE4C2000F00BBED6
:10470000042800F04F81052840F0E7861A2004F0C5
:10471000F5FE002459E1282800F0988515D82428B2
:1047200000F07F85262840F0D886B44C062004F09F
:10473000E5FEB4F8580104F0B1FEB4F85A0104F0F3
:10474000ADFEB4F85C0100F0C4BE2C2800F09185E9
:104750002E2800F00B862A2840F0BF86012004F0A6
:10476000CDFEA64B587900F0D6BD3D2800F0388329
:104770001ED8362800F0E0850BD8322800F0C58519
:10478000342840F0AA86482004F0B8FE002500F046
:104790000DBC3A2800F0D4823B2800F0E083382892
:1047A00040F09B86042004F0A9FE944C00F03FBD2D
:1047B000452800F06A8627D8402800F0AF854228B7
:1047C00040F08B868D4C102004F098FE607904F048
:1047D0004DFEA06804F06BFE94F88E0104F046FED6
:1047E000B4F8580104F05AFEB4F85A0104F056FE29
:1047F000B4F85C0104F052FEB4F87E0104F04EFE01
:10480000B4F8800100F065BE472800F01B86C0F0B8
:104810000886492840F06186022004F06FFE774B3D
:10482000988900F056BE702800F00F8357D8692889
:1048300000F066822AD8652800F0008115D84D283E
:1048400000F04585642840F04886072004F056FEB5
:10485000E72004F00BFE694B587904F007FE0020B6
:1048600004F004FE042000F01FBE672800F0CD8194
:1048700000F23A82122004F041FE614B00241B88B2
:10488000B3F5806F94BF01250825A0E16C2800F0E6
:104890004A8216D86A2800F048846B2840F01D86AA
:1048A000052004F02BFE574B188804F0F7FD564BFB
:1048B000188804F0F3FD554B187800F0010000F063
:1048C0002ABD6E2800F0668200F29582062004F070
:1048D00015FE4F4B186804F0EAFD4E4B2EE2782887
:1048E00000F0A08119D8742800F07C830BD87228BE
:1048F00000F0DB83732840F0F085082004F0FEFD13
:10490000012400F00BBC762800F02E8400F2B28364
:104910002F2004F0F3FD404C19E3A42800F04A8452
:1049200013D87C2800F0C385A02840F0D6850C2041
:1049300004F0E4FD394B186804F0B9FD384B1868F1
:1049400004F0B5FD374B00F06ABCF12800F0A681F9
:10495000FE2800F05684F02840F0BF85324C042039
:1049600004F0CCFD2368B3F85A0004F097FD2368E7
:10497000B3F8580000F0ADBD032004F0BFFD0020E7
:1049800004F074FD204604F071FD0E2000F0C3BC5D
:1049900004F0B4FD012004F069FD0B2004F066FD75
:1049A00000F006BC062004F0A9FD412004F05EFDE5
:1049B000462004F05BFD4E2004F058FD412004F039
:1049C00055FD1A4B187800F084BD194B185D013461
:1049D00004F04CFD0B2CF8D10024164B185D01346B
:1049E00004F044FD082CF8D10024134B185D013469
:1049F00004F03CFD072CF8D100F06DBDA0020020B2
:104A000008000020621E0020641E0020F41C00200C
:104A100050020020E40A002037A60108E8F7FF1F33
:104A2000ECF7FF1FF0F7FF1F2C0B0020D9340020FC
:104A3000D7AD0108E3AD01083CBB01080B2004F031
:104A40005DFDC24BC24C188804F028FD208880B25E
:104A500004F024FDBF4B1B68C3F3C000C3F3800206
:104A6000800040EA4200C3F340021043C3F3401207
:104A700040EAC20003F01003184304F00FFDB64BE8
:104A8000A4781A8812F0010F0CBF0020022012F047
:104A9000020F0CBF0021042112F0040F0CBF0023F1
:104AA00010230393AD4B02F0080A1B6812F0400F6D
:104AB00003F0C00B03F480794BEA0A0A0CBF00260E
:104AC000202603F4805812F0100F4AEA090A0190D8
:104AD00003F4005C0CBF00204FF400704AEA080A9F
:104AE00012F0200F029103F4804E0CBF00214FF40E
:104AF00080614AEA0C0A12F4807F049605900CBF8C
:104B000000264FF4006603F4003003F400474AEA3D
:104B10000E0A0796089003F480364AEA070A0691BF
:104B20004AEA060A03F48021089E09914AEA060A25
:104B3000099E03F400254AEA060A03F480104AEAB3
:104B40000505284303F000730343854812F4007FF2
:104B500006780198C6F3800643EA0603029E43EAFC
:104B60000003039843EA0603049E43EA0003059802
:104B700043EA0603069E43EA0003079843EA060356
:104B800043EA00030CBF00214FF4001112F4806FC0
:104B900043EA01014FF000000CBF00234FF0806397
:104BA00019430346A3420CD26E4A9D5C012202FACD
:104BB00005F50D4218BF9A4003F1010318BF1043D9
:104BC000F0E704F074FC684B93F8B407A3E3674B79
:104BD000E05E023490FBF5F080B204F05FFC062C3E
:104BE000F5D1634C208804F059FC608804F056FC31
:104BF000A088604C04F052FC208804F04FFC6088D0
:104C000004F04CFCA08800F064BC102004F076FC9A
:104C10000024594B185D013404F028FC102CF8D105
:104C200000F059BC702004F069FC00260E24744387
:104C3000524D01362B682344B3F8190104F02EFCC1
:104C40002B682344B3F81B0104F028FC2B68234491
:104C5000B3F81D0104F022FC2B68234493F81F01D4
:104C600004F004FC2B68234493F8200104F0FEFBBD
:104C70002B68234493F8210104F0F8FB2B682344AC
:104C800093F8220104F0F2FB2B681C44D4F82301B2
:104C900004F00DFC082EC9D100F01DBC702004F0FA
:104CA0002DFC314C04F1700594F8D00004F0DEFBCB
:104CB00094F8D10004F0DAFB94F8D20004F0D6FBAB
:104CC00094F8D30004F0D2FB94F8D40004F0CEFBA7
:104CD00094F8D50004F0CAFB073494F8CF0004F030
:104CE000C5FBAC42E0D1F6E3102004F007FC002441
:104CF000234B185D013404F0B9FB102CF8D1EAE322
:104D0000134D0024A87F400000F0FE0004F0F6FBE5
:104D1000AB7F9C4280F0DF831A4B33F8140004F021
:104D2000BDFB0134F4E7184C062004F0E7FB2088B3
:104D300004F0B4FB608804F0B1FB144B1888C8E39E
:104D4000042004F0DBFB124B69E200BF300C0020B2
:104D5000181D0020400200204802002044020020CC
:104D6000D83400201B1D0020A0020020EC0B0020E6
:104D7000400B002094020020DE0D00202C0B0020B0
:104D80007C0D002056020020B00A0020180C0020E4
:104D9000B80A0020072004F0B1FBAB4B1888FF28AD
:104DA000A8BFFF20C0B204F061FBA84B186880F3D5
:104DB000100080B204F072FBA54B188C04F06EFB5F
:104DC000A44B93F88321A44B2AB11B680A205843B3
:104DD00080F3100002E0186800F30F0080B278E35F
:104DE0009C4C022004F08AFB94F8DE0104F03EFBA8
:104DF00094F8DD018FE2994C0B2004F07FFB2368CF
:104E00000025187804F032FB23682646587804F011
:104E10002DFB3368914C2B441879013504F026FBA7
:104E2000032DF6D12368D87904F020FB2368987805
:104E300004F01CFB2368D87804F018FB2368588919
:104E400004F02CFB2368187A65E2854D1E2004F0DF
:104E500055FB2B6800241B78022B65D12B6804F1CD
:104E6000080253F822007F490EF08EF911F0B4FCCD
:104E700080F30800C0B204F0F9FA2B687A4903EB1A
:104E80008403D86A0EF080F911F0A6FC80F30800C4
:104E9000C0B204F0EBFA2B6804F10E0253F82200C2
:104EA00072490EF071F911F097FC80F30800C0B25E
:104EB000013404F0DBFA032CD0D1072C2B6821D16C
:104EC000586C68490EF060F911F086FC80F3080018
:104ED000C0B204F0CBFA2B686249986C0EF054F91A
:104EE00011F07AFC80F30800C0B204F0BFFA2B681E
:104EF00093F84C000EF0F0F811F06EFC80F308000F
:104F0000C0B20BE02344587804F0B0FA2B68234475
:104F1000D87A04F0ABFA2B682344587D013404F0AE
:104F2000A5FA0A2CC9D1D6E22B682344587804F09C
:104F30009DFA2B682344D87A04F098FA2B6823440E
:104F4000587D013404F092FA0A2CEDD1C3E214F832
:104F5000010F002800F0BF8204F088FAF7E7012073
:104F600004F0CCFA3E4B1B681878D4E1502004F0D2
:104F7000C5FA00243A4B04F11E021B680C2103EB16
:104F800082035D1C3A4A5B78013401FB0323187AE3
:104F900004F06CFA687804F069FAA87804F066FA0C
:104FA000E87804F063FA142CE4D194E206266E4308
:104FB0002B4BC8361B6801351E44B07904F056FAF5
:104FC000707804F053FAB07804F050FAF07804F0F6
:104FD0004DFA307904F04AFA707904F047FA0C2D52
:104FE000E4D178E2002701240025194B9A789542F4
:104FF00022DA0333E95C00231D4A03EB02089A5CC2
:105000008A4204D00C33B3F5A87FF5D112E0D8F86A
:10501000040011F011FA81460CB9264601E007445C
:1050200008E04E4506DAD8F80430985D04F01EFA20
:105030000136F6E70135D8E7002C00F04C82F8B2D3
:1050400004F05CFA0024CFE7D81D0020E41D002006
:10505000181D0020A0020020E01D0020A80C002048
:105060002C0B0020000020410000C84200007A44C0
:10507000CCA30108C84D0024A87804F03FFAAB780F
:105080009C4280F02882C54BE05C0023C44A9918FA
:105090009A5C824204D00C33B3F5A87FF6D102E0CB
:1050A000087A04F0E3F90134E9E7BE4C162004F075
:1050B00025FAB4F8940104F0F1F9B4F8400104F0D1
:1050C000EDF9B4F8420104F0E9F9B4F8440104F050
:1050D000E5F9B4F8D60104F0E1F994F8EB0104F035
:1050E000C5F9002004F0C2F994F8EC0104F0BEF90F
:1050F00094F8830104F0BAF994F8900104F0B6F939
:10510000002004F0B3F9A84B1B68B3F956000A233A
:1051100090FBF3F080B204F0C1F988E0E0B2013412
:1051200004F0A4F9092CF9D1D5E1102004F0E6F936
:105130009E4B9F4C187800F0020004F097F99D4BAD
:10514000187804F093F9206804F0B1F9606804F06D
:10515000AEF9994B188804F0A1F9984B188804F01F
:105160009DF98D4B588CB4E104F0CBF90646122022
:1051700004F0C4F90EB9924B02E0102E03D1914B0A
:105180001D685C6801E000242546304604F06EF995
:10519000284604F08CF9204604F089F98A4B1868F7
:1051A00004F085F9002004F079F9002004F076F984
:1051B0000020B0E0784D002495F824002E468000B1
:1051C0000130C0B204F09AF995F8240004F04EF9C9
:1051D00096F824309C4280F07E817C4D285D04F05E
:1051E00045F905F11003185D04F040F905F12003BD
:1051F000185D303504F03AF9285D04F037F90134D0
:10520000E6E7082004F07AF9002004F047F90020CE
:1052100004F044F9002004F041F9002059E1186835
:1052200042E1042004F06AF95E4B98683CE194F88E
:10523000780104F01BF994F87C0104F017F994F854
:105240007B0104F013F994F87D0164E0554C0720CC
:1052500004F054F9B4F87E0104F020F9B4F88001A8
:1052600004F01CF994F8820104F000F9B4F8840108
:105270002FE14C4C0C2004F041F994F88E0104F01D
:10528000F5F8B4F8980104F009F9B4F8940104F0C1
:1052900005F9B4F8960104F001F994F88F0104F0CF
:1052A000E5F8B4F89A0104F0F9F8B4F89C0110E1BB
:1052B0003C4C042004F022F994F8D40104F0D6F810
:1052C00094F8D50104F0D2F8B4F8D60101E1324ED9
:1052D0003F4CB07F002500EB4000C0B204F00EF957
:1052E000B37F02349D4280F0F68014F8020C04F083
:1052F000BDF814F8010C013500EB800000EB8000D4
:1053000000F2EE2004F0CAF8EAE7012004F0F6F813
:10531000244B93F8900104F0A9F8DCE0082004F095
:10532000EDF800241F4B234493F88601013404F068
:105330009DF8082CF6D1CEE0174B1A4C93F8650077
:1053400004F12805C0EBC000C0B204F0D7F894F80F
:10535000F20100231F4AD25C904200F0C0800C335F
:105360003C2BF7D10834AC42F1D1B4E0402004F03A
:10537000C5F80C4C04F14005B4F8AC0204F08EF80A
:1053800094F8AE0204F072F8043494F8AB0204F01E
:105390006DF8AC42F0D19EE0181D00201B1D0020CE
:1053A000CCA30108A00200202C0B00209A020020B0
:1053B000F01D0020240B0020EA1D0020E81D002025
:1053C000F81C0020001D00204C0200203D1D002084
:1053D0003E040020801D0020E02004F08FF84D4C9A
:1053E00004F18005B4F82E02043400F03F0004F00C
:1053F00055F8B4F82A02C0F3861004F04FF894F878
:105400002802000904F032F894F8280200F00F0096
:1054100004F02CF894F8290204F028F8AC42E1D109
:1054200059E03D4C0D2004F069F80BF037FC04F016
:105430001DF8208804F03BF8E06804F038F800F02C
:1054400049FF31E004F072F80446842004F056F875
:10545000204604F02CF8304BDD6804F18003AB42A9
:105460008CBFC4EB0505802508F038FC20462A4691
:105470000AA90BF047FC00240546AC422BDA0AA926
:10548000085D03F0F3FF0134F7E7132004F036F86A
:105490000024224B185D013403F0E8FF0B2CF8D1F7
:1054A000002004F004F8002004F001F813E0194C87
:1054B000082004F023F8B4F8480103F0EFFFB4F833
:1054C0004A0103F0EBFFB4F84C0103F0E7FFB4F836
:1054D0004E0103F0E3FF012018E0002016E003F086
:1054E000C5FFB4F8F40103F0D9FF94F8F60103F016
:1054F000BDFF94F8F70103F0B9FF94F8F90103F048
:10550000B5FF94F8F80103F0B1FF2BE72BB0BDE82D
:10551000F08F00BFA002002028000020D7AD0108B6
:10552000016B0346C26810B5406941B1196C541A49
:10553000005D013918BF0A46C0B21A6410BD196A6D
:10554000405C0131914228BF0021C0B2196210BDF8
:10555000036B13B15A68036C01E0C269036A9A4293
:1055600037BFC068C3EB02008018C3EB0000C0B2B5
:105570007047436B13B190F844007047826A436AE6
:10558000D31A584258417047436A816A02698B4274
:1055900038BF9B185B1A416B21B149680B44511EFF
:1055A0008B4203D2013AD31AD8B270470020704719
:1055B00043799B070AD5436A8269D154426A0369D9
:1055C0000132B2FBF3F103FB1123436270474379CD
:1055D00003F0020303F0FF0243B10369416A826AE8
:1055E000013BDBB2881A23EA00007047104670477F
:1055F000437913F0010307D0C368C169026A013B14
:10560000881A1840C0B2704718467047437910B5E1
:1056100013F0010304460DD0FFF7EAFF58B1226AE8
:105620006369985CE3680132B2FBF3F103FB112379
:10563000236210BD184610BD426A806A131A584290
:105640005841704741717047334A10B5136C9068E8
:105650001944081A40F68C2398429160D06051603A
:1056600013463CD9127893F945108A420BD1111F89
:10567000082908D893F84610182901D8013103E009
:1056800083F8442002E0002183F8461093F9441087
:105690008A421CD1204991F84710C1B100219142A2
:1056A0001E4806DA03EB8104246920F81140013119
:1056B000F5E7511E00EB41011630814203D0002472
:1056C00021F8024FF9E7164908780130087083F88D
:1056D0004520002201211A7083F8471010BD92F86E
:1056E0004710B9B1A0F2EF2440F2DA518C4208D849
:1056F00011780B2905D80B1D0131117042F82300D8
:1057000010BD002283F84720991804320020302A67
:105710000861F9D110BD00BF341400202002002020
:105720001E02002010F80A3C0133DBB20A2B00F8FD
:105730000A3C07D910F8131C034A002322F8113041
:1057400000F80A3C704700BF20020020024B1A6C90
:10575000013211441964704734140020024B53F88D
:1057600020301B68198070475C150020F8B5104B7D
:1057700053F82060A1F57A700DF060F94FF03332E4
:105780000C4B0DF0C1F9044630890D460DF056F969
:1057900002460B46204629460DF0B6F90022064B7C
:1057A0000DF0DCFA0DF0C2FB376880B23880F8BD2E
:1057B0005C1500203333F33F00408F402DE9F04F5C
:1057C000724BDFF8D0811A68B8F8006089B0C6EB78
:1057D00022135B437600C6EBE202B8F902601B13AA
:1057E0005643B8F90420039153439B1303EBE62679
:1057F00006EB860380331B120593654BB6F5FA3A28
:105800001B684FEAE67747F1FF3BC8F8186004933E
:10581000AAFB0A670AFB0BF3B8F8102007EB430753
:105820000692B8F80E30B8F908200793D3170AFB90
:1058300003F102FB0B11AAFB02238146B8F90A000F
:105840000B44C1171D0306FB01F300FB0733A6FB46
:1058500000011403194445EA1255020A42EA0162A2
:1058600012194FEA2123B8F8064043EB0503003232
:10587000A2FB040143F5004304FB03114B10CA17BC
:1058800000930192DDE900231343B8F80CC06FD0F8
:10589000069A002012B2D3177343A6FB024502FBFF
:1058A0000733079A1D4412B2D3170AFB03F3AAFB6E
:1058B000026702FB0B331F4472047B04A41843EA03
:1058C000D63345EB0305049B0019C3F580164FEA58
:1058D000E6714FEAC17343EA56034FEAC6720FFA04
:1058E0008CF64FEAC60141EB0501121A63EB010386
:1058F00040F63544A2FB040104FB0311DDE900235B
:105900000DF04EFEB8F916404B1304FB03F6420BA4
:1059100042EAC142E51702FB0566A4FB0245634368
:10592000354402FB0535A4FB02232B44540E44EA04
:10593000C314B8F9142024184FEA636545EB010538
:105940005143D31700FB0313A2FB00011944C20CFF
:1059500042EA413212194FEAE143B8F912404FEAE4
:10596000122043EB050340EA03602201024400E0F9
:105970000022B9F1000F02D0120AC9F80020039AE0
:105980000AB1059B136009B0BDE8F08FE41F002049
:10599000E01F0020C8260020704770478C46654BEA
:1059A00065492DE9F04F1B684C8998462202002377
:1059B0004FF00009B8EB020869EB03098A88002759
:1059C00016040A8989B0A2FB084502FB0955E209C1
:1059D00042EA4562B4184A884FEAE5134FEAC236F4
:1059E000CA8847EB0305CDE90645A2FB084502FB43
:1059F0000955220A42EA056216EB020A8A894FEA31
:105A00002523A8FB024502FB09554FEAD4524FF06B
:105A1000000742EA452247EB030B12F5FA664FEA0C
:105A2000E55343F10007CDE90467B6F5FA6F77F166
:105A30000007019060DAA2FB026702FB03F107EBAB
:105A400041070521A6FB014501FB0755DDE9066776
:105A500069104FEA3400361A67EB0107CDE9066793
:105A6000DDE90401A608354C46EA8576AF104FF013
:105A7000FF35BAEB060A6BEB070BA042A94128DA07
:105A8000DDE9066740F6AC5412194FF0000543EB10
:105A9000050302FB03F1A2FB02236FF0060403EBF4
:105AA0004103514204FB0311A2FB044536190D4486
:105AB0004FF00B0147EB0507A2FB014501FB035526
:105AC000CDE906676D104FEA3404BAEB040A6BEBBC
:105AD000050B08FB09F3DDE90401A8FB088909EBC4
