:020000040800F2
:1000000000500020613D01080D3E01083527010820
:100010000D3E01080D3E01080D3E010800000000E4
:100020000000000000000000000000000D3E01087C
:100030000D3E0108000000000D3E010819270108CF
:100040000D3E01080D3E01080D3E01080D3E010860
:100050000D3E01080D3E010889260108852601088C
:100060000D3E0108292701080D3E01080D3E01083B
:100070000D3E01080D3E0108452601080D3E010810
:100080008D2601080D3E01080D3E01080D3E0108B8
:100090000D3E01080D3E01080D3E010881260108B4
:1000A0000D3E0108012601080D3E01081126010838
:1000B000F1250108E1250108D1250108C92601081B
:1000C000C1260108C5260108BD2601080D3E01080C
:1000D0000D3E0108392601082D26010821260108B8
:1000E0002F2701080D3E01080D3E01080000000009
:1000F0000000000000000000000000000000000000
:0C01000000000000000000005FF808F1A3
:100110002DE9F04F784B794EA1B033600023736026
:100120000EF0F8FA18B911F07BFC0EF015FB744DC7
:1001300009F04CFC4FF47A53A5F85031714B724CD6
:100140001A7842F001021A700023089309930A9367
:100150004FF4E0130B932368AA7B43F480332360AE
:10016000A36943F01003A361236803F400330993E8
:10017000089B01330893099B1BB9089BB3F5A06F3B
:10018000F2D12168604B11F4003101D0022315E057
:10019000186840F0010018600891236803F002031A
:1001A0000993089B01330893099B1BB9089BB3F57E
:1001B000A06FF2D123689F0739D501230A93534BCF
:1001C0005348196841F010011960196821F00301C2
:1001D0001960196841F0020119606368636063681F
:1001E0006360636843F4806363604A4B1968043B4F
:1001F00021F07041596048490860606820F47C1023
:100200006060586840F000405860D86820F40040B2
:10021000D8609B68180449BF404B4FF4E0130B6053
:100220004FF480130B930A9B012B01D117E0FEE7DB
:10023000022B18D16AB10B9BB3F5801F02D14FF48A
:10024000A01305E00B9BB3F5E01F02D14FF40013A0
:100250000B9362680B9B134343F4803302E06368A3
:1002600043F460136360236843F080732360226863
:10027000254B9201FBD55A6822F003025A605A6856
:1002800042F002025A6062681F4B02F00C02082A18
:10029000F9D15868224A00F00C00042803D008283D
:1002A00004D01B4B00E00B68136011E058685F68D6
:1002B000C0F38340FF0300F1020001D4194B05E0B5
:1002C0005B6813F4003F0B6818BF5B08584310606D
:1002D00063681548C3F3031303441F7E1368FB4090
:1002E0001360EA7B003218BF012232720A680849A3
:1002F0008A421BD101211DE05D82000838130020D5
:1003000054020020A03400200010024000200240CF
:1003100000127A00041001401C000020001BB700EE
:100320005800002000093D00A49A0108B1498A4202
:1003300002D10221B04A1170DFF820C3AF4A0DF19B
:10034000800ACCF80C20A269DFF8D49242F00102B6
:10035000A261626ADFF8CCB2F260626A4FF0000814
:1003600042F080726262A269484642F01C02A261B9
:100370004FF6FF722AF82C2D51460493CDF80CC08D
:100380008DF8568006F075F85846514606F071F81B
:100390009B48514606F06DF802228DF83B2020AFB5
:1003A0004FF4007227F8482D4FF010008DF83A00F6
:1003B0003946C9F81020484606F05BF8914A504685
:1003C000516841F00071516006F0F6FF8E49159AB0
:1003D000B2FBF1F28D49326101F11400182241465D
:1003E00015F0EEFF049B4FF47A72B3FBF2F3884AE8
:1003F000DDF80CC0013B5360F0238CF82330072359
:10040000C2F808801360AB68DFF820C2CCF8003077
:10041000804B0FCB8AE80F00A369102243F008033A
:10042000A361A369159843F00803A3610823CBF8DF
:10043000103016A9CBF81020CDF80CC006F019F832
:10044000179818A906F015F8DDF80CC0DCF8003094
:10045000180746D5704890F88E31012B41D86B496A
:1004600090F88F21CB6813F0805900F0EA8543465D
:10047000002B36D0694BDFF8AC8118684FF0100BB9
:10048000C8F814B051461590654805F0F2FF644A6B
:10049000082313613C2007F0C6FDC8F810B04FF0E8
:1004A000000B95F88F319B4517DA5E4B5C484FF097
:1004B0000808C3F81080C0F814807820049307F06F
:1004C000A7FD049B5649C3F814807820C1F810801A
:1004D00007F09EFD0BF1010BE3E7B9F1000F00F00F
:1004E000B985642007F09FFDA0224F48002115F038
:1004F00067FFE369002243F00703E361A36943F464
:10050000006343F00C03A361404B4FF0000903F17B
:100510002C0102F8019001320E2AF5D1FF2283F856
:100520003A2083F83B2083F83C2083F83D203F4A63
:100530003F4BD2F800803F4A49461A603E483C2271
:1005400015F03EFF08F04004052349460C203B4AC5
:10055000484311F802E0384A00F802E054B9AEF11D
:100560001E0EBEF1010F05D84FF0FF0E013B00F843
:1005700002E0DBB201310529E8D1314A95F8059056
:100580001370304A304B3264C03272642F4A83F8A1
:10059000009002EBC9021D4B527818F0200F18BFD3
:1005A00001229A6400232A4A40F2DC519952023314
:1005B000102BF8D1384600211C2215F001FF18F449
:1005C000007B08F400674BD018F4005F0CD147B1F2
:1005D000204B95F88211A3F10C02012918BF134694
:1005E00000E01D4B069301E01A480690CDF850A09C
:1005F00038E000BF001BB700CD3400200005FA052D
:10060000001001400000014040420F00381300205C
:1006100010E000E0CC9A010854020020DC9A0108A6
:1006200000080140000C014000330020DC000020E5
:100630007C1C002044040020381D00205AB9010809
:10064000351D002064020020800D002040BA010802
:100650009A0D0020B09A0108A49A010800ED00E06C
:10066000CDF818B0B9F10E0F04D009F0EF09B9F1C7
:10067000080F02D101238DF84A30012007F0DCFB7E
:1006800018B14088003018BF0120C8F3400300347F
:100690008DF83E30C8F3403300F0010018BF01244C
:1006A0008DF83830C8F3C0338DF83D008DF84040E8
:1006B0008DF83B3027B195F88271791E4F424F413A
:1006C000C8F300438DF84130B36C1BF1000B18BF29
:1006D0004FF0010B003318BF01238DF84330C8F3EE
:1006E00000538DF84430B5F84631B5F84421ADF8E3
:1006F0004830B5F852318DF83C70ADF84630C8F34B
:1007000080438DF83F30B5F8503108F00107C8F349
:10071000C00418F4805F8DF839708DF83A408DF878
:1007200042B0ADF84C30ADF84E2004D0B54AB2F826
:100730004C21ADF84E20B3F5FA7F84BF0023ADF80D
:100740004E3095F8D231B0480021642286F84C3002
:1007500015F036FE9DF84A30002B14BF022300230B
:1007600007B904B10133A9494FF0000B01EB830332
:10077000DB6BCDF814B00793079B33F80B204FF6D3
:10078000FF739A4200F0B681D3B2A14E9DF83D109E
:100790001D01741919B1991E012940F2A5819DF816
:1007A000401021B171599B48814200F09D819DF814
:1007B000417027B171599748814200F095819DF8A9
:1007C0003E1039B161689448814203D121891029D2
:1007D00000F08A819DF83B1039B161688E488142F2
:1007E00003D12189022900F07F819DF83C1039B1A5
:1007F00061688A48814203D12189022900F074810D
:10080000DDF850E0BEF1000F0FD06068DEF8001098
:1008100088420AD12189BEF80400884200F0648130
:10082000BEF80600884200F05F814FEA1228B8F156
:10083000020F02D19DF8382004E0B8F1010F04D175
:100840009DF83920002A00F04F819DF8432062B1C5
:100850009DF84A204AB9A3F10802012A05D8715926
:100860006F4A914208BF4FF004089DF8442052B1EE
:100870009DF84A203AB917B10C3B012B01E0043B2B
:10088000032B40F20C81B8F1010F40D1654FFF23DB
:1008900087F8F83087F8F930637B4FF00009228938
:1008A00060688DF856305146022387F8FC90C7F8EF
:1008B00008418DF85730ADF8542087F8B490C7F848
:1008C000B890C7F8BC90C7F8C090C7F8F49087F804
:1008D000FA9087F8FB9005F0CCFD7059A17A4A4652
:1008E00006F0E0FE2046494642460DF0CAFC4E4B5B
:1008F000C7F81491C7F80C314C4B2046C7F810319B
:1009000007F5867107F5887209F05AFDECE0B8F139
:10091000020F3DD10599464ACBB21C214B430598A5
:10092000D7184FF000094FF0010C787087F802904B
:1009300087F80A9002F803C0637B22896068FC6034
:1009400015A98DF85630CDF80CC0ADF854208DF8AF
:10095000578005F08EFD7059A17A4A4606F0A2FE36
:10096000DDF80CC02046624649460DF08AFC314B4A
:1009700007F110013B61304BC7F818907B612046AE
:1009800007F1140209F01CFD059901310591ABE056
:10099000B8F1030F40F080809DF83F30214DA3B1A6
:1009A0000023204608214FF6FF7295F851600DF0A4
:1009B0003BFD224B05EB8606C6F8DC01C36095F8CB
:1009C000523005EBC305192353E0BDF84C3095F8C0
:1009D0005160B3F5FA7F37D9194A2046B2FBF3F2DA
:1009E0000821BDF84E3092B20DF01EFD154B05EBFF
:1009F0008606C6F8DC01C36095F8523005EBC305E6
:100A00000D2336E05402002088130020A49A010828
:100A100060B901080004004000080140000C0140DA
:100A2000002C014038130020495600084D5700089B
:100A300034140020E1760008255700085D570008AF
:100A400000127A006D570008C04A2046B2FBF3F24C
:100A50000121BDF84E3092B20DF0E6FCBC4B05EB27
:100A60008606C6F8DC01C36095F8523005EBC30575
:100A7000092385F85530B74B93F8522093F851105D
:100A800003EBC20080F8541001320131846583F811
:100A9000511083F8522027E0B8F1040F24D1BDF89B
:100AA0004630AA4AAB4D92FBF3F2012192B2BDF857
:100AB0004830204695F850600DF0B6FC95F852206D
:100AC0000A2105EBC20383F8551095F8501005EB89
:100AD000860683F8541001320131C6F80C029C6579
:100AE00085F8501085F852200BF1020BBBF11C0F5A
:100AF0007FF442AE974E984D96F85030002786F816
:100B00002C32964B2F701C78A4F11703022B18D8A7
:100B1000336C0021D85903EB070812F0B3FC10B175
:100B2000B36C5BBB25E08E4B07EB030E98E80F0020
:100B30008EE80F002B7810370133C02F2B70E7D1D0
:100B4000EEE7884B13F834C003EBC403D3F80480FA
:100B500085F800C0B8F1000FE2D06745E0DA804ABE
:100B60003B0103EB020E43440FCB01378EE80F002D
:100B7000F3E77D480368DA0426D41FE07B497C4A0A
:100B800001EBC40393F84C001F6D1070002FF0D0E0
:100B900000238342EDDAC3EBC3017A18D2F8008058
:100BA000DFF804C2013341F80C8001EB0C0E918890
:100BB000AEF8041092798EF80620EAE704F0EF030D
:100BC000082B6C4B25D126E095F80080B8F1010F79
:100BD000F4D9694D0027474505F11005EEDA55F8BF
:100BE000100C4FF07C5112F0B9FA4FF07C5145F8DF
:100BF000100C55F8140C12F0B1FA4FF07C5145F876
:100C0000140C55F80C0C12F0A9FA013745F80C0C2D
:100C1000E1E70E2C08D11A78182C42F010021A7055
:100C200008D107F029FD05E01A78192C22F01002EE
:100C30001A70F5E70EF096FD4B4A13685B0302D479
:100C40004E4B01221A704E4B4E4D1A784E4C42F0CC
:100C500004021A702A789846012A8CBF10231423A4
:100C60008DF856304FF002038DF85730A3694FF4DA
:100C7000805243F00403ADF854208CBF01270027B5
:100C8000A3614248514605F0F4FB414B0FB1414A84
:100C900000E0414A00201A6007F00AFA3F4B404F3B
:100CA00093E80300A3698AE8030043F0080316A948
:100CB000A361159805F0DDFB11F034FC9F238DF83E
:100CC0003430322000234FF480598DF835308DF8C0
:100CD00036308DF8373007F0A6F90422C7F81490A3
:100CE00050460DA90FF0B2FDC7F810909DF85620A0
:100CF0009DF85530120242EA03429DF857301A43DC
:100D0000284B9A4214D0322007F08DF9C7F814907E
:100D1000F5200AF011FCFF200AF00EFC7028C7F83D
:100D2000109005D12B78022B02D1164B03221A709A
:100D30002B78032B0CBF1F20022007F055F82B78CF
:100D4000032B33D0012009F0A7FF39E040420F0008
:100D50005D57000838130020680C0020800D00202B
:100D6000780C002040BA0108DC000020A49A010899
:100D7000B00D00204E020020800C002088120020C0
:100D8000A0340020CD3400200010024000080140B3
:100D9000B0340020017D0008157D0008C09B0108CB
:100DA000000C014015202000B10D0020022007F0AA
:100DB00043F818B14088003018BF0120C707C1D5DB
:100DC000B54B4FF0100B1F68002107F4006305932B
:100DD000B24B5A4618462D78049315F0F1FA4FF6A7
:100DE000FF72ADF83420049B02224FF0000917EA8D
:100DF000020107F4004A8DF836208DF837901F461F
:100E000010D020A921F84CBDA54806F0F9FC042318
:100E10003B704FF0010B072387F8019087F802B071
:100E2000FB7000E08B46BAF1000F11D0022320A91D
:100E300021F84C3D9A4806F0E3FC01230BEB03023A
:100E40003B71BB71072387F805B0FB715FFA82FB2A
:100E5000012D12D9202320A921F84C3D904806F0FD
:100E6000CFFC052301223B72BA720BF1010307226A
:100E700087F809B0FA725FFA83FB059B93B10223EE
:100E800020A921F84C3D874806F0BAFC092301222D
:100E90003B73BA730BF10103072287F80DB0FA73A5
:100EA0005FFA83FB6368804843F44043636063698F
:100EB0007D4D43F001036361A36943F40073A361B3
:100EC0000BF0A7FF15A80BF079FF784B00241593C2
:100ED000774BBBF1020F169334BF234680231A933E
:100EE0004FF480731B934FF480631C93202315A948
:100EF0001D9328464FF400531E931794CDF860B00D
:100F000019941F940BF067FF2B68BBF1010F43F09E
:100F100001032B60674B98BF00215A6888BF0121ED
:100F200022F4702222F4807242EA01225A60996807
:100F3000614A20460A4042F4602242F002029A606E
:100F4000D96A0BF1FF3221F47001D2B241EA0252A8
:100F5000DA62012339188A78002A5AD03A5C5C1C7C
:100F6000092A91F803E0E4B2524911D9A2F10A0525
:100F700005EB45054FF0070C0CFA05FC0EFA05FED3
:100F8000D1F80C9029EA0C0C4CEA0E05CD600EE06D
:100F900002EB42054FF0070C0CFA05FC0EFA05FEB9
:100FA000D1F8109029EA0C0C4CEA0E050D61062BC5
:100FB00040490ED8013B03EB83034FF01F0E0EFA9E
:100FC00003FE9A404D6B25EA0E0545EA02034B638A
:100FD00020E00C2B0ED8073B03EB83034FF01F0ED2
:100FE0000EFA03FE9A400D6B25EA0E0545EA020350
:100FF0000B630FE00D3B03EB83034FF01F0E0EFA64
:1010000003FE9A40CD6A25EA0E0545EA0203CB624B
:1010100000E01C460430102801D023469AE7254BF7
:101020009A6842F480729A609A6842F001029A606B
:101030009A6842F008029A6099681E4A0D0710D516
:10104000FAE702F1FF38B8F1090F8CBF0023012342
:10105000FFF70EBA194B83F88F9109F047F8FFF7A5
:1010600040BA936843F004039360124A936813F004
:101070000403FAD1114D9168B5F8580141F4A0016B
:101080009160F0B9B5F95A31D3B9B5F95C31D3F102
:10109000010338BF002314E0DC000020501B0020B7
:1010A00000080140000C0140080002404C240140AF
:1010B000601B002000240140FDF7F1FF54020020D6
:1010C000034613F001031CD1C24A00B2137111F0A0
:1010D000F1FFC14912F042F81590B5F95A0111F02B
:1010E000E9FFBD4912F03AF81690B5F95C0111F02C
:1010F000E1FFB94912F032F8B849179015A807F086
:10110000D9FCB74F3B689C0320D5C82006F08BFF65
:10111000AE2009F013FF08B10EF059FC86F8540216
:10112000C82006F080FFAF4B00210C22AE48C6F865
:10113000583215F045F9022386F85F320FF022FD90
:1011400006F04BFFA94B0344C6F86432A84CB5F82F
:101150006001266895F85F11B6F9566095F8672129
:1011600095F8683100960DF0C3FBA14610B9012037
:1011700006F0A6FF98F80030102243F0020388F82A
:1011800000309C4B0A265A6108221A61994C19209A
:10119000E368013E83F01003E360E36883F0080333
:1011A000E36006F040FF012006F082FF192006F000
:1011B0003AFF002006F07CFF16F0FF06E6D1082378
:1011C0004FF010088C4E2361C4F810803368180764
:1011D00009D58A4BC4F814801B689847884B0122B4
:1011E000C4F810801A70874B874C1B68187B11F06D
:1011F00061FF794911F0B2FF04F0EAFD80462088D2
:1012000011F058FF414611F0A9FF15F0E9FA7F4BA4
:101210001880208811F04EFF01467D4812F052F8E8
:101220007C4912F04FF87C4B6B4918607B4B7C4C2F
:10123000D86811F093FF7B4911F090FF7A4BFF21A2
:1012400018601B22204615F0BBF80022227032687D
:10125000764B012112F0020F1970204604D0617004
:10126000032119700221A170510704D519784C1C73
:101270001C700324445412F00A0F0CD01A78042175
:101280008154511CC9B205244454D11C0232197036
:10129000D2B2062181543A68940604D519784C1CC0
:1012A0001C7007244454110608D5197809244454A5
:1012B0008C1C01311C70C9B20A2444546979082974
:1012C00001D00E2908D11C7804F1010E83F800E04A
:1012D0004FF00B0E00F804E01C784FF00C0C04F1FA
:1012E000010E5FFA8EFE12F4803F83F800E000F8F2
:1012F00004C009D004F1020C4C4C84F800C0484CE6
:101300004FF00E0C04F80EC0540708D51C7804F1F9
:10131000010E83F800E04FF0100E00F804E01C7896
:101320004FF0120C04F1010E5FFA8EFE12F4806F82
:1013300083F800E000F804C00ED095F81CC2BCF1A0
:10134000000F09D004F1020C384C84F800C0344C72
:101350004FF0130C04F80EC0940508D51C7804F166
:10136000010E83F800E04FF0150E00F804E0182994
:1013700013D11C784FF0160E00F804E004F1010EB2
:101380005FFA8EFE4FF0170C00F80EC004F1030E4A
:101390000234E4B283F800E00155110304D5197852
:1013A0004C1C1C7019244454D20504D51A78511CC5
:1013B00019701A238354002198221D4815F000F853
:1013C0001C4C0EF073FBB5F84E311B49A4F86C327F
:1013D000002333E01C00002035FA8E3C6815002005
:1013E000DC000020DA03002094150020404B4C0064
:1013F000E00A0020000C0140F4010020400200201F
:10140000400A0020980B002008000020BC0B0020A0
:101410000AE81C4100401C468C0A0020E40A002017
:10142000D31C0020BD378635940B0020D21C002031
:10143000E01B002038130020500D00200B808B7023
:10144000D9F80010AB4A01F1790CB5F89401AA491A
:10145000C4F868220A6084F86E3282B2A749DFF8C5
:10146000F8A2D1F80080DFF8F4E208F596784EF89B
:10147000138023F80A200233242B8846EED1D7F8B4
:1014800000E000231EF4805F08BFB5F89A21AAF897
:1014900006201CF80320E2B90CEB0302917892F8C5
:1014A00003B0594515D239B1013901EB810101EB86
:1014B000810101F5617107E00BF1010B0BEB8B0B67
:1014C0000BEB8B0B0BF56171527889B204322AF861
:1014D00012100433502BDCD11EF0080F00F0BC803A
:1014E00095F88E31062B00F2B180DFE803F0040797
:1014F0000E35506F6F0045F2F05201E042F6F822CF
:101500007F4B1A800EF05EFB9FE07D4B42F6F82287
:101510001A8000010A2390FBF3F0A0F5B0600023CD
:10152000784A98500433482BFAD1774A774B4020B9
:101530009A60774B12221A7006F0B8FC002800F06F
:10154000858001234FF0070B90F9000040218DE8C2
:101550000808704A704B73E0694B42F6F8221A8013
:101560006E4A6A4B40209A60694B10221A7006F04E
:101570009DFC00286AD001234FF0000A90F900007A
:1015800040218DE80804664A4FF4E13358E05C4B93
:1015900042F6F8221A80634A5C4B40209A605C4B0A
:1015A00008221A7006F082FC00284FD001234FF069
:1015B000000C90F9000040218DE808105A4A4FF4C1
:1015C000E13308F0BAF9C4F8B8023BE04C4A42F6FD
:1015D000F82111804E490C22062B54480A7010D075
:1015E0000023037084F8BC3284F8BD321B2384F8D6
:1015F000BE32052384F8BF2284F8C0324FF4E135AF
:101600000DE00021017084F8BC1284F8BD12484D31
:10161000212184F8BE1284F8BF2284F8C032454AE2
:101620003A4B40209A6006F041FC78B101234FF01C
:10163000000E414A90F9000040218DE808402B46F9
:1016400008F07BF9003018BF012028B9082004F009
:101650000DFC3A4A2D4B9A603B682D4A13F4804F9B
:1016600004D01221117036482849886042F20101E5
:10167000194089B1224944F620600880980404D5B5
:10168000082111702F4821498860D90704D50C2101
:1016900011702D481D49886011781D06A1F10401C3
:1016A000517040F194804FF0000A284DDFF8B0B03F
:1016B000514615222648C4F8C4B285F801A0C5F8E1
:1016C00004A0C5F808A014F07BFE224BABF1050284
:1016D00050461A60049307F061FFD8F800200220FA
:1016E000EA6006F0E3FB049B1946D8BB802004F0B7
:1016F000BDFB64E0DA030020E40000209C340020FD
:10170000180C002038010020F57000081C00002093
:10171000EE1C00205D730008A0860100E570000843
:10172000B1720008D170000865720008D001002075
:1017300090D00300917000084971000845710008BD
:10174000217100082D71000839710008B40A0020C9
:1017500000160020D40A00200A020020A81500204C
:101760004404002090F805E06B78C24A4FF00C0C5E
:101770000CFB032C9CF801C0F44504D00133DBB210
:10178000042BF2D900236B700B6890F900001B78D2
:10179000002B6B784FF00C0505FB03220CBF0121D9
:1017A00003215378002200910192022108F0C5F82C
:1017B000B14B1860002899D0012007F0EFFED9F84E
:1017C0000000AE4B00F5C5721A6004F005FD3B68E1
:1017D000980561D5AA4D069AAA4B2A609A6906987F
:1017E00042F001029A6103884FF01009ADF83030E1
:1017F000A54802230CA98DF832908DF8333004F0FF
:1018000038FE2B68A0485B880CA9ADF83030042363
:101810008DF8323004F02DFE2B680120197A04F087
:1018200013FE2B68994A5B684FF0000A536115A8B4
:101830008DF859904FF0010915938DF858A08DF847
:101840005A9005F0AFFF2B680DA85B7A8DF836A093
:101850008DF8343003238DF835308DF8379008F04B
:101860008BFED8F800208A4B3C3A1A603368C822B5
:1018700043F0100333604FF4C873A4F8DE32854B95
:101880001A80854BE1221A80844B40F271121A8033
:10189000834B4FF0FF321A60824B834DC4F8E03225
:1018A0008033C4F8E4323B680026D9032E7040F13F
:1018B000B180DFF824B2DFF8CC8140F22A3A04F09C
:1018C000EFFB4FF0010952465846314685F800902B
:1018D00014F076FDD8F81830744843F00403C8F8C3
:1018E00018304023ADF8303018238DF833300CA970
:1018F00003238DF8323005F083FFD8F81C306C4D8F
:1019000043F00203C8F81C306A4BA8F694781A68B2
:10191000694BB2FBF3F22B88013A23F45C731B048E
:101920001B0C2B8092B21D23AB852A85A5F8149041
:101930002B8C23F001031B041B0C2B842B8CA988FC
:101940002A8B23F0020322F0730212041B04120CF0
:101950001B0C89B242F0600243EA0903A9802A8382
:10196000AE862B842B8B23F008031B041B0C43F047
:1019700008032B83B5F844306FEA43436FEA5343BF
:101980009BB2A5F84430D8F8A83F43EA0903C8F849
:10199000A83F40460BF03DFA15A80BF00FFA474B55
:1019A000CDF858B0159380231A934FF480734FF0FD
:1019B000100B1B9340464FF4005315A91E93CDF80E
:1019C0005CB0CDF860A019961C961D961F960BF082
:1019D00002FAAB890DA89BB243F40073AB81D8F82F
:1019E000003043F00203C8F800308DF834B08DF8B1
:1019F00035908DF836608DF8379008F0BDFD304B8E
:101A00001A68304BF2500436802EF8D108F002FCF0
:101A100008F000FC3B685A0540F18880D4F8146651
:101A2000294B04201E6006F041FA0421C4F8180670
:101A300006F016FA254B84F81C0608201E6006F0F6
:101A400035FA234B0821186006F00AFA214D84F874
:101A50001D06002128462C2214F0B2FC8E236B7048
:101A60004FF07C08E0237D27EB7085F8008085F837
:101A70002B7033E078890108B00A0020580C002050
:101A8000AC0A002000100240000C0140000401409C
:101A9000A80A0020700A0020680A0020780A0020A6
:101AA0006C0A002080040020B112002000080140D0
:101AB000000400405800002000366E01340400404D
:101AC000A08D0108B2120020941D0020E81D002006
:101AD000341E0020B81D002020160020854D2C2229
:101AE0000021284614F06CFC8A236B701020A02380
:101AF000EB7085F8008085F82B70C4F8206606F03E
:101B0000D5F91021C4F8240606F0AAF984F82806AD
:101B10002020C4F82C6606F0C9F92021C4F830064C
:101B200006F09EF984F834060EF058FA724B734DA5
:101B30001B78022B64D1724B00261A88322022F0C7
:101B400040021204120C1A801A884FF4805722F0B7
:101B500038021204120C1A801A8892B242F0400223
:101B60001A809F238DF834308DF835608DF83660FB
:101B70008DF8376006F057FA8DF85560614E0422F3
:101B8000776115A80DA90EF061FE37619DF85630FA
:101B90009DF855201B0243EA02439DF8572013434A
:101BA000594A934219D00AD8A2F51A42033A9342ED
:101BB0000CD002F51A420232934209D01BE0534A7C
:101BC000934205D00132934207D014E0202300E075
:101BD00080232B804FF4807302E04FF480732B80BE
:101BE0006B80AB882A881B02AB605343EB600123F8
:101BF00084F8353604E000232B806B80AB60EB600B
:101C0000EE6816B3F60A37464FF00008B0450BDA17
:101C100008EB06056D100DF15409E8024946102243
:101C20000EF07CFE0F2805DCFF020FF07BFCC4F8F1
:101C300038760AE0002359F80320013256D10433E4
:101C4000102BF8D12E462F46E0E7314D314A2B6854
:101C500013F4002318BF0123137006F0BEF92E4BB6
:101C600018602E4B5A791946052A03D12C4B4FF494
:101C7000C8721A802B4B4FF47A721A802A4BC822F2
:101C80001A802A4B1A7842F008021A70284B1A78E8
:101C900022F002021A702A6840F6020313406BB168
:101CA0002448254B1860254B03201870244B012035
:101CB000187024480023038023480380930308D529
:101CC000042384F8603294F85F3243F0010384F80F
:101CD0005F328B6801222B601C4B1A701C4B1A78E8
:101CE00062F07F021A7021B0BDE8F08F05F10108A3
:101CF0003D46A8E7ED1D0020CD340020280000203F
:101D000000380040000C014018BA20001740EF00D6
:101D1000DC00002089120020E80B00205402002083
:101D2000620B0020C6340020C43400204E02002084
:101D3000CC340020CC0300208C1D0020EC1D0020A2
:101D40005C000020421B0020441B00208812002061
:101D5000A0340020A2492DE9F04F0A68A14802F5FD
:101D60009C4320330360A04B87B01E78C6B1194650
:101D70005B689A4240F20A81013E0E7006E12B68D0
:101D8000072C98BF195D994B88BF21461B6898485E
:101D90009847032C0CD9944A013602EB4404208165
:101DA000934BF4B21A78934DA2421A46E7D81EE03C
:101DB0002B6804F10E0203EB82029388D28800287C
:101DC000E9D0C01A4FF47A714843D31A90FBF3F06C
:101DD000084440F6C903984205DC40F2EE239842DD
:101DE000B8BF184601E040F6CA0080B2D3E7824B84
:101DF00042F201091B6803EA0909D9F101097F4B85
:101E000038BF4FF00009D3F800A07D4BB9F1000FA7
:101E100006D17C49097819707B4908787B4908709C
:101E20001E781EB1794B1E7886F001066E490F238D
:101E300081F82C30764B92F800801F780322B7FB94
:101E4000F2F202EB4202BA1AD2B201F12E0303EB14
:101E500042020024D5F800B04FEA480C0292254611
:101E600064455AD016B16B4BE05A00E03046BBF8DF
:101E70001430834206D8BBF81610814234BF0021CB
:101E8000012100E00021644BE9B953F825309A455F
:101E900002D2624BE05A1AE0EBB218468DE8081005
:101EA0000DF018FC009BDDF804C0032B0FD84FF099
:101EB000010E0EFA05FE4C4B93F82C1021EA0E0190
:101EC00083F82C1003E00AF5967143F81410B9F169
:101ED000000F1DD1029A444B04EB4401505293F879
:101EE000762022B9022F13D9012083F876004C4BBB
:101EF000581831F803E041884A337144B0F804E0DF
:101F0000714489B2E15208B2032390FBF3F080B22E
:101F1000424B0135E0520234A2E7334B374A93F883
:101F20002C10B1F10F077942794183F890103D4BA5
:101F300069B13D4909684E0109D41268D9689A60AF
:101F4000521AC82A1ED9012283F821201AE02E48ED
:101F5000012101702D48126801709968DA605B6890
:101F6000521A9A4203D92F4B002283F821200024D1
:101F7000444507DAE0B20DF0ADFB284B23F814001E
:101F80000134F5E7224B1A7801321A701A4E336881
:101F9000DD0405D5244B1B68DC0701D40DF0DCFD06
:101FA0000F4B1D68134B19688B7A002B40D01B4ACE
:101FB000013B32F813000B7B1BB1C0F53B600830CE
:101FC00080B200B2A0F57A70B0F57A7FA8BF4FF466
:101FD0007A7020EAE07011F06DF814495DE000BFFE
:101FE000A4340020EC0100207419002024000020FB
:101FF000EE1C0020E4000020DC0000209C340020C7
:10200000D0000020D80000200100002000000020A7
:10201000A61500207C190020A81500200A02002027
:10202000A2190020500D0020F801002000007A4481
:10203000326810043AD58C4AD2F89400281A002845
:1020400034DB05F59C402030C2F894008748C97AFB
:102050004479874830F8140080B290FBF1F092F890
:102060009810013101F00F0182F898100A4482F8AB
:10207000990018467F4A9A5C01331044102B80B2B5
:10208000F8D100B290FBF3F000B26428A8BF64203E
:1020900020EAE07011F00EF8774911F013F9774952
:1020A00011F05CF811F046FA754B18803368754CE6
:1020B00013F4807F00F00081734B744F9D4203D96D
:1020C000BB780BB90123BB70BB78002B00F0F48008
:1020D0006E4B94F8008093F821506D4B691E4D4271
:1020E0001A684D41002DC2F380690CBF0322002203
:1020F000C8F380089A46029297F82030052B00F228
:10210000D680DFE803F0034E5378859EB8F1000FC8
:102110003AD0604B1868604B19880DF005FB012818
:1021200009D15E4B64211A684F4BD3F8AC30DB8881
:1021300001FB03233B61B9F1000F0DD04A4BD3F8EB
:10214000AC301B7943B107F0F3F9032387F8203053
:102150004FF47A73FB61CFE7002D40F0A8804F4B1E
:102160003A691968DFF824B1914209D907F0E0F91A
:1021700003228BF8202040F6B832CBF81C20BBE7B6
:1021800001228BF82020B7E74FF48060B9F1000FEF
:1021900002D005F005FD01E005F012FD00233B61D2
:1021A00085E0002D45D107F0C3F9A5E725B105234A
:1021B00087F82030012100E02946B8F1000F0DD04A
:1021C000344B1B68DA89364B1A805A809A80264A2B
:1021D000D2F8AC205288DA80022202922F4B1A6881
:1021E0007B699A4202D8B8F1000F5DD147F23053B3
:1021F000FB6103231EE0237843F0020323700DF0FC
:10220000ABFC264B1A68FB691344BB61042311E045
:10221000224B1A688DB1BB699A4248D9214B1B7871
:102220001BB9DAF80030DA0741D4237823F002032F
:102230002370052387F820305EE7FB691344BB61F8
:1022400035E0164B08491A68D1F8AC306421DB88B8
:102250004FF4806001FB03233B61002387F82030AB
:10226000FB7005F0ADFC47E774190020501B0020FF
:10227000601B00200D1A00200000C84200C07F44EF
:10228000F01C0020CC340020404B4C00500D0020AE
:10229000F8010020A0150020A41500209C34002087
:1022A0000A0200201800002000297FF425AF029ABE
:1022B00012B1104605F03AFC994D05F5C370B5F81A
:1022C0004E110DF031FAAB46804678B906F090FA1F
:1022D000944B0022C3F8B080C3F8B480C3F8B88030
:1022E000C3F8BC20C3F8C020C3F8C42023785B0720
:1022F00040D53368DF063DD58B4B1B78DD0639D4DE
:102300008A4B884D1F788FB19BF8DE31B8F1000FF2
:1023100016D173B1864B1A68D5F8C8309B1A002BBA
:1023200007DA0DF019FC85F8CC8023E0B8F1000F36
:1023300019D1102005F0FAFB012385F8CC3019E003
:102340003BB17B4A4FF47A71126801FB0323C5F855
:10235000C83095F8CC306BB105F0CCFB714B002246
:1023600083F8CC2006E095F8CC301BB105F0C2FB19
:1023700085F8CC7000229BF8DC919BF8DD11BBF84E
:102380009671BBF898E113466A4D9B08505F023284
:10239000B842C4BF63F07F03DBB27045B8BF43F0FF
:1023A0004003082AF0D15F4D95F8CD209A4205D11F
:1023B00095F8CE20F92A04D8013200E0002285F8F1
:1023C000CE2085F8CD30594B5B4F1A789A46DAB952
:1023D0003B68D80708D5B8F1000F15D12378D90785
:1023E00012D50DF039FC0FE023785A070CD5534B6A
:1023F0001B784BB1524BDB7833B911B10DF0ACFB0C
:1024000002E0B8F1000FF9D095F8CE20454B142A20
:10241000DFF8488140F0B4809AF8002019F10009F3
:1024200018BF4FF001096AB393F8CD205F2A11D18C
:10243000227802F0040202F0FF0112B10DF08CFBD1
:1024400008E00B200191009305F070FB0199009BBF
:1024500083F8CE10B9F1000F14D095F8CD307D2B54
:1024600010D1237803F0040303F0FF0213B10DF041
:1024700073FB07E00B20019205F058FB294B019AF2
:1024800083F8CE20237803F0040303F0FF00002B31
:1024900076D195F8CD30234A572B15D1294B4FF4DF
:1024A0007A721A8033681B0601D503F0B9FC264BFB
:1024B0001B68580702D5254A0A21118013F008032A
:1024C0005ED1234A13805BE03168490715D55A2B4A
:1024D00013D1204B197819B1187001221E4B1DE041
:1024E00092F8CF3083F0010382F8CF300BB10C208B
:1024F00000E00D2005F01AFB42E05D2B00F0758531
:102500005B2B00F074855E2B2AD100F072BDA72BE7
:1025100040F05385044B1A7842F004021A702FE001
:1025200054020020741900204E02002018000020E0
:102530009C3400200A020020F8010020D000002076
:10254000500D0020C6340020F4010020C4340020C7
:10255000D40B00208D0B00208E0B0020E00A002001
:10256000562B01D107F0C2FD9AF80030002B00F085
:10257000198595F8CD306F2B40F00E850DF06CFB72
:102580003368580731D595F8CF309BB12378590778
:1025900010D5B04BB3F90620BBF896319A4209DD4D
:1025A0003B6813F0010305D1AB4A32211180AB4ADD
:1025B00082F8CF303B68DA030AD5A94B1A782AB9DA
:1025C000A84A127812B9A44A3221118001220BE0E4
:1025D000A44B1A784AB1227802F0040202F0FF01FB
:1025E0001AB91970A04B01221A70D8F80090002374
:1025F00009F1790A3B6009F17B0598460AF102036B
:1026000003EB080113F808204B7815F8010C9A42E7
:102610000AD2294606F068FF30B115F8023C0122C3
:102620009A403B6813433B6008F10408B8F1500F2F
:1026300005F10405E2D18D4B1F784FB18C4FDFF8C7
:1026400050823B688B4D13F0020F40F03F8337E31D
:1026500009F1C90809F1CA0508F10103D919DA5DC0
:102660004B7815F8010C9A4229D2294606F03CFF16
:1026700028B395F802E028797F4B0EF1FF3E4FF02A
:102680000C0C0EEB4E0E0CFB00FC9E44734B95F8AD
:1026900003A003F1D00909EB0C02516871450ED07B
:1026A000002109F80CA0C2F804E09160012202FAAE
:1026B00000F093F8002122EA000083F800010637B9
:1026C000482F05F10605C7D16C4BDFF8C8A11F687C
:1026D0006B4B4FF000091B6802936A4B1B78039306
:1026E000DAF80030002B00F0E28293F80080B8F1B5
:1026F000000F00F0DC82DAF8042002998A1A002A1E
:102700000DDB01F5FA72012101FA09F1CAF8042082
:10271000524A92F8000120EA010182F80011039A5E
:10272000002A00F0C4821AF8041C58780431C9B297
:102730004A4A002840F07B82464830F9111052483E
:10274000B0F8940100F1C805A94201DD9D7815E0BB
:10275000C838814202DA9D786D420FE0012303FA06
:1027600009F33E4991F8002122EA0303029A81F815
:10277000003102F5FA73CAF8043098E292F8003199
:1027800043FA09F3DB0700F19282002DCCBF02204F
:10279000012005F0EDF908F1FF33132B00F27E82E2
:1027A000DFE813F0140021002E003E007A008100C3
:1027B000E5004901AD01E40114027C023E004D0038
:1027C0008100E5004901B7001B017F013B783846D5
:1027D0001D44FA2DA8BFFA2525EAE5753D7005F0E0
:1027E000AFFB01201AE07B7838461D44642DA8BF5A
:1027F000642525EAE5757D7005F0A2FB02200DE059
:10280000FB7838461D44642DA8BF64251F4B25EA7C
:10281000E575FD70196805F04FFB03202946D2E1EC
:1028200079790D2029446429A8BF642121EAE17146
:10283000797109F06BFDB8F10D0F00F02F82397935
:102840000E2029446429A8BF642121EAE17139716D
:10285000B9E100BF0A020020740B002074190020A7
:102860008C0B00208D0B00208E0B0020CA34002022
:10287000F8010020FC010020B8A10108640C002030
:102880009C340020D000002054020020A41C002012
:10289000F4010020481A0020B9790520294481F369
:1028A0000801B9718FE1A74B1B681A78022A21D160
:1028B0002846009310F0FEFBA34910F003FD009B97
:1028C000596A10F043FB0021019010F0E5FD019AD8
:1028D000009B40B910469D4910F0FCFD019A009BF9
:1028E00010B19A4A00E000225A620F20114609F006
:1028F00021FD0AE099780F202944C829A8BFC821E2
:1029000021EAE171997009F001FDB8F10F0F00F0B3
:10291000C5818C4BD3F8008098F80030022B1AD177
:10292000284610F0C7FB884910F0CCFCD8F82010DE
:1029300010F00CFB0021054610F0AEFD30B9284622
:10294000824910F0C7FD10B1804D00E00025C8F8A5
:10295000205012205BE198F8011012202944C82968
:10296000A8BFC82121EAE17188F801102BE1754B5D
:102970001B681A78022A21D12846009310F09AFB8E
:10298000724910F09FFC009B196B10F0DFFA0021D8
:10299000019010F081FD019A009B40B910466B49EF
:1029A00010F098FD019A009B10B1684A00E00022E7
:1029B0001A631020114609F0BDFC0AE0197B1020B3
:1029C0002944C829A8BFC82121EAE171197309F077
:1029D0009DFCB8F1100F00F061815A4BD3F80080D4
:1029E00098F80030022B1AD1284610F063FB5749A3
:1029F00010F068FCD8F82C1010F0A8FA0021054659
:102A000010F04AFD30B92846504910F063FD10B16E
:102A10004E4D00E00025C8F82C501320F7E098F840
:102A20000B1013202944C829A8BFC82121EAE1714D
:102A300088F80B10C7E0434B1B681A78022A21D193
:102A40002846009310F036FB414910F03BFC009BF8
:102A5000D96B10F07BFA0021019010F01DFD019A56
:102A6000009B40B91046394910F034FD019A009B93
:102A700010B1364A00E00022DA631120114609F055
:102A800059FC0AE0997D11202944C829A8BFC82112
:102A900021EAE171997509F039FCB8F1110F00F0E4
:102AA000FD80284BD3F8008098F80030022B1AD113
:102AB000284610F0FFFA264910F004FCD8F8381028
:102AC00010F044FA0021054610F0E6FC30B9284623
:102AD0001E4910F0FFFC10B11C4D00E00025C8F8A5
:102AE0003850142093E098F8151014202944C82970
:102AF000A8BFC82121EAE17188F8151063E0114BE5
:102B0000D3F8008098F80030022B23D1284610F02B
:102B1000D1FA0D4910F0D6FBD8F8281010F016FAAB
:102B20000021054610F0B8FC30B92846074910F0DE
:102B3000D1FC10B1054D00E00025C8F8285009204F
:102B400065E000BFA81C0020000020410000C84232
:102B500000007A4498F8031009202944C829A8BF26
:102B6000C82121EAE17188F803102CE0AD4BD3F8BD
:102B7000008098F80030022B1AD1284610F09AFAFB
:102B8000A94910F09FFBD8F8341010F0DFF90021AC
:102B9000054610F081FC30B92846A34910F09AFC94
:102BA00010B1A14D00E00025C8F834500A202EE0F5
:102BB00098F80D100A202944C829A8BFC82121EA85
:102BC000E17188F80D1009F0A1FB67E0954BD3F88F
:102BD000008098F80030022B1DD1284610F06AFAC8
:102BE000924910F06FFBD8F8401010F0AFF90021B7
:102BF000054610F051FC30B928468B4910F06AFCAC
:102C000010B1894D00E00025C8F840500B2029463E
:102C100009F090FB42E098F817100B202944C829CE
:102C2000A8BFC82121EAE17188F81710CBE7012875
:102C300034D198787E4B33F91110B1F5617F05DB03
:102C400040F633039942B8BF0B4601E04FF461737D
:102C5000B8F10C0F22D14FF49665A3F5617395FB83
:102C6000F0F593FBF5F592F80131EDB2AB4215D0DA
:102C7000032D94BF2B46022382F8013108FB03B3D6
:102C80006C4A03F2B673136005F074F940462946A6
:102C900009F03CFB681CC0B204F06AFF012202FA92
:102CA00009F2654B93F800110A4383F8002109F1FA
:102CB0000109B9F1040F0AF10C0A7FF411ADBDE46A
:102CC0003368D80510D55D4BDB786BB1D8F8003090
:102CD000990709D52B8813F001090AD105F088FD61
:102CE000012004F05DFF04E0012004F069FF0123EE
:102CF00000E000233A6852070CD55BB1012004F0D4
:102D00005FFF2B889B0708D405F072FD022004F0BA
:102D100047FF02E0022004F053FF2B88484A13F0DB
:102D2000030F4FF0100114BF51611161D8F800205A
:102D300012F00A0F23D03A68D00609D559070AD4F1
:102D4000042004F02DFF3F4B1A883F4B1A8002E00D
:102D5000042004F035FF3B689A0606D52B885B06F5
:102D600006D4402004F01CFF02E0402004F028FFBD
:102D70003B68580603D5334B1A88344B1A80D8F871
:102D80000030990608D43B681A0540F1D7804FF40B
:102D9000807004F005FFD5E02D4B1B789B0740F1B8
:102DA00093802C4B1B78042B40F28E803B6813F4ED
:102DB00000790ED02B88DD0679D4102004F0F0FEC7
:102DC000202004F0FDFE2448011D0CF0E1F9022250
:102DD00068E0B5F8008008F010081FFA88F343B1E6
:102DE000102004F0EDFE1D4B4FF0010883F8009019
:102DF00000E098463B6858054DD5194B1B685A8929
:102E0000184BB3F900100029B8BF494291422BDAA0
:102E1000B3F90230002BB8BF5B429342ACBF002332
:102E2000012322E0A81C00200000C84200007A44D0
:102E30000A020020640C002074190020500D0020AC
:102E4000000C0140D40B0020440C0020381B002053
:102E50004E020020D80A0020B01C0020C01C002018
:102E6000580C00202C0C00200023A3B12B889906BD
:102E70001FD4202004F094FE7B4B7C481A685B68CA
:102E8000011D436002600CF083F9794B4FF001089B
:102E900083F800800DE02B889A060AD5202004F0E4
:102EA0008FFE0022724B4FF001081A7001E04FF0C4
:102EB0000008704D95F80231B3B90E2004F036FECB
:102EC000012385F802310FE02B8803F03003002B3B
:102ED0003FF459AF102004F073FE202004F070FE80
:102EE000634B00221A7003E0B8F1000F3FF44BAFC0
:102EF00000231A466049002050526049604D5052EC
:102F0000604905EB030E5052002159510232CEF8B0
:102F10000400CEF8081005F1280E503543F80E10C5
:102F200059519E441D44042ACEF80400CEF80810DE
:102F30006860A96003F11403DCD124E74FF48070CA
:102F400004F03EFE504A53791546082B01D00E2B53
:102F500002D1402004F034FE33685B0540F18180EB
:102F600095F81C321BB9237813F0040F02E03B687C
:102F700013F4002F0BD03F4B002283F87C213C2020
:102F800009F0ECFE00286CD004F02AFEF7E70DF003
:102F900025F80CF08BFD64E0B9F1000F02D07E2B18
:102FA0003FF4ECAA95F8CD30972B7FF4B0AA374BBD
:102FB0004FF4C8721A80FFF7E3BA0022BB2B0592C8
:102FC00001D1022303E0B72B04D14FF6FE73ADF815
:102FD00016301EE0BE2B01D1022303E0BD2B2FD102
:102FE0004FF6FE73ADF8143013E0012002E002202A
:102FF00000E003205FFA80F909F1FF338BF8B43762
:103000000BF0AAFB06F0E2FC484604F0B1FDFFF726
:10301000B7BAD8F80030BDF81410B3F858200A44F5
:10302000A3F85820BDF81610B3F85A200A44A3F8A4
:103030005A2007F05BF8002385F8CE30FFF7A0BADE
:10304000792B04D1124BDA7822F0010206E07A2BB8
:103050007FF496AA0E4BDA7842F00102DA70FFF79D
:103060008FBA07B0BDE8F08FA81D0020B81C002063
:10307000C01C002074190020C03400205C0C00200B
:10308000781A0020600C002054020020620B0020FF
:1030900094150020C44A2DE9F04FC44BD2F800E04B
:1030A000B3F90600BEF80A308FB098420FDBB0F5D6
:1030B000FA6F9EF8077007DAC21A5743A3F5FA634E
:1030C00097FBF3F7643703E0C7F1640700E0642778
:1030D000B74B0021B3F8942193F95E310292B54ABF
:1030E0009BB2D2F800C0039364460A46AF4B029DE0
:1030F00031F903B0C5EB0B0303F2F31640F2E635EA
:10310000AE4203D8002BB8BF5B4201E04FF4FA7324
:10311000022A4FF06406A84D2ED09CF81181B8F118
:10312000000F04D04345CCBFC8EB0303002393FB3F
:10313000F6F86FF0630A35F818900AFB083A08F1C0
:10314000010835F918800FFA89F5C5EB080505FB6C
:103150000AF595FBF6F5A944984D21F805900EEB7C
:1031600002052D796B43964D93FBF5F364339BB2C7
:103170007B4393FBF6F630E09CF81281B8F1000F28
:1031800004D04345CCBFC8EB0303002393FBF6F602
:103190006FF0630905EB460809FB063A05EB4606A6
:1031A000B8F90E80B6F91050844EC8EB050505FB42
:1031B0000AFA039D9AFBF9FAC8EB0A0808FB05F81E
:1031C000A6F804809EF8065083EAE376A6EBE37641
:1031D0006E437B4D96FBF5F664360CEB020898F8CF
:1031E0000190754B06FB09F94FF0640803F11C05CB
:1031F00099FBF8F902F8059094F80B9003F11F057C
:1032000006FB09F999FBF8F902F8059094F8159076
:1032100003F1220506FB09F6022A96FBF8F656553D
:103220001D4616BF253383F82780D754029B634E73
:103230009B4502DA735A5B4273520231062902F14E
:10324000010204F101047FF451AF594CB4F89631F6
:10325000984205DBB0F5FA6FA8BF4FF4FA6000E0C2
:103260001846C01A4FF47A725043C3F5FA63B0FBA4
:10327000F3F34FF0640E93FBFEF205EB42016FF0A7
:10328000630000FB0233098D05EB4202B2F92A000C
:103290000AB2821A534393FBFEFE4A4B71441B88C9
:1032A000F1805906454F3ED5474B1888424BB3F83D
:1032B0004030C01A00B20FF0FDFE44490FF04EFF3F
:1032C000804602F085FD8146404602F00DFD8046B5
:1032D000B7F902000FF0EEFE8246B7F900000FF0DA
:1032E000E9FE494683460FF039FF41460346504602
:1032F00001930FF033FF019B014618460FF024FEA7
:1033000010F0F2F84946388050460FF027FF41464A
:10331000814658460FF022FF014648460FF016FE40
:1033200010F0E2F878802A4B1A689A4612F0020FE1
:1033300000F09780274B6A6C1B6845F207219A1AA8
:103340008A421D4F40F38D807B6407F0F7F8224BD3
:10335000DFF890801A789946032AB8F8003043D1F4
:103360000A2B4DD90023282089F8003004F05BFE99
:1033700007F0E4F8B7F8480004F048FB174B184989
:103380001B68DA7890FBF2F0421C082A28BF08225A
:103390000A7059791B7992B251435A43A7F84A10DF
:1033A000A7F84C202CE000BF640C00200A0200208B
:1033B00054020020E00A0020F81A00202C0C002003
:1033C0000CFEFFFFFC010020D40B002035FA8E3CE0
:1033D000DC000020A4340020EC1D00208C1D002007
:1033E0005C000020901D00200A2B09D80323B54A59
:1033F00089F8003000231370A7F84A30A7F84C3042
:1034000099F80020B04B012A0DD002D3022A1ED019
:1034100027E0B5F84A20B8F800309A4221DD0123B0
:1034200089F8003011E0B8F80020B5F84C1091424E
:1034300002DD02221A7011E0A449B1F84A100131EC
:103440008A4202DD00221A700BE0082007E0B5F87E
:103450004C30B8F8002001339A42E0DC072004F039
:1034600065FBDAF800703A0577D5994B296D1A6833
:10347000964BC1EB020A45F207218A456DDD1A65BC
:10348000944AB6F90690D2F80080B4F84E1198F834
:103490000A20A9F57A79012A8F4E03D046D3022A51
:1034A00023D045E093F86520596D03EB4202B2F852
:1034B0006800082291FBF2FE80B2CEEB01010144CC
:1034C00091FBF2F2A3F8700092B2596540F6E44322
:1034D0005343B8F808004FF47A72C0EB13335343E8
:1034E000B8F9062093FBF2F321E07C4BB8F808B062
:1034F0001B78C6F800B05B071AD579480CF014F9B0
:1035000020B917F0100F18BF4FF0000909FB09F29E
:10351000322392FBF3F39944B8F906304FF47A72F0
:1035200003FB09F393FBF2F35B4400E000233360F9
:103530003368D5E91E0103FB0AFA4FF47A739AFB4C
:10354000F3FA10EB0A0041EBEA710023C5E91E0112
:10355000644A10F00FF8644B1860644B1A68984680
:1035600012F4805F26D03E0621D5614B1B78980768
:103570001DD5604B1978042919D900235E4E052208
:103580009A55981C1E440A27122BC2B2777004D099
:10359000B1EB520F0346F1D800E014222A44322343
:1035A00082F87F30FF2382F880300F2000E00A206D
:1035B00004F0BCFAD5F89820444E002A4ED04F4B68
:1035C000D6F89C1018689946814247D896F8A01002
:1035D000B6F8A2305268C9B9012786F8A070D35C4A
:1035E00003B3384604F064FD86F8A47004F05EFA74
:1035F000B6F8A230B3B9D6F898301B78053BBB4279
:1036000010D804F0EAFCC6F8A8000BE0002786F802
:10361000A070D35C33B1384604F04AFD86F8A4703C
:1036200004F044FAD5F89820B5F8A2105268274B58
:10363000525CFE2A03D10022A3F8A2200EE0FF2A4A
:1036400002D104F057FA09E0D9F800000A2606FB77
:1036500002020131C3F89C20A3F8A2101F4E337858
:10366000590703D5264B08225A6162E0D8F800209A
:10367000D2075CBF43F0010333701D4B1B781B075F
:1036800003D4337823F0010333701E4B1B685F07AC
:1036900002D51D4A128862B91C4A12880AB19807DD
:1036A00005D41B4B1B88003318BF012300E0012306
:1036B00083B3022385F8A430337823F001033370F9
:1036C0002EE000BF5C000020EC1D0020F81A002056
:1036D000A43400208C1D0020981D0020CC34002034
:1036E000DA030020407E05009C1D0020F801002028
:1036F0004E020020D80A0020781B00209C340020B5
:10370000000C0140F4010020C4340020620B0020B2
:10371000C63400203278D10758BF022385F8A43080
:1037200004F05BFCD5F8AC30C01A002801DB04F0D3
:10373000BDF90CF053FCBA4B1A78002A78D0D5F8B2
:10374000B030002B00F0D186D5F8B000B54C04F0B5
:103750005CFD002800F0C986D4F8B00004F050FDEC
:10376000092801D03F2855D14FF00008D5F8B460A2
:10377000AD4F44462EB1AD483968324612F068FE6E
:1037800010B9B84604B93C46A94B10379F42F1D353
:1037900004B3D4F800E0D8F800C0D5F8B430A1489C
:1037A0001EF803701CF80310B94213D15A1C59B902
:1037B0002D2B09D8C0F8B42003442027024483F8F5
:1037C000B87082F8B81005E02B4483F8B870C5F8DB
:1037D000B420E2E7D5F8B4300BB1444510D0954899
:1037E00004F02BFD444507D854F8100B04F025FDD8
:1037F000092004F07EFAF5E78F4804F01EFD00264C
:10380000D5F8B4309E429FD2884B985D04F071FA8F
:103810000136F5E7D4F8B430002B40F09286042846
:1038200040F0898604F1B8000CF046F800F05DBE67
:10383000824F97F84A30012B40F05286DFF8008221
:10384000DFF818923B68C8F80070C9F80030DFF85C
:103850000CA25246106804F0D8FC002800F0338611
:10386000DAF8000004F0CCFC754A8346136893F83C
:1038700048201AB924283BD1012236E0012A04D17C
:103880004D280CBF022200222FE0022A04D13C283E
:103890000CBF0322002228E0032A09D140284FF060
:1038A000000222D81A71DA715871987104221CE052
:1038B000042A08D19A7983F8490080EA020B83F838
:1038C00006B0052211E0052A39D159791A799142B9
:1038D000997906D941409971511C19711344187294
:1038E0002DE081420CBF0622002283F8482026E00A
:1038F0003278544B520722D4BBF1230FDAF8002060
:1039000012D14748012101704F48C5F8B020C5F8D1
:103910008021019304F091FC474804F08EFC019B48
:103920001A7842F002021A70D5F884311B785B4590
:1039300005D1464A464B1A60464A474BDA60404A30
:10394000136893F848A0BAF1060F80D193F84900A4
:1039500000F0ACFE002840F0AF85394B1A6892F8B1
:1039600049B0BBF14C0F00F0928400F2C580BBF16E
:10397000350F00F04C8242D8BBF12B0F00F05E8473
:1039800024D8BBF1250F00F0348405D8BBF1230FF8
:1039900000F03C8100F0CCBDBBF1270F00F030847B
:1039A000BBF1290F40F0C48504F090F9A4F87E0122
:1039B00004F08CF9A4F8800104F07DF984F8820108
:1039C00004F084F9A4F8840100F073BDBBF12F0F5B
:1039D00000F0F48405D8BBF12D0F00F0338400F023
:1039E000A7BDBBF1310F00F0FE84BBF1330F40F0F7
:1039F0009F8504F060F984F8900100F05ABDBBF196
:103A0000410F00F095843DD8BBF1390F00F00584DB
:103A100026D8BBF1370F00F0988400F089BD00BFB5
:103A2000CA340020F81A0020F4A10108B01B0020BD
:103A3000D4A3010810BB010815BB0108E01B00203E
:103A4000441E0020CC34002045BB0108EFBEADDE93
:103A5000F04F00200400FA0500ED00E0481E0020B1
:103A6000BBF13C0F00F01381BBF13E0F40F06085CD
:103A700004F021F984F8DE0104F01DF984F8DD0179
:103A800000F017BDBBF1440F00F0E18427D8BBF173
:103A9000430F40F04D8504F00EF90023A3606071E0
:103AA00004F01EF9A3681843A06004F004F984F838
:103AB0008E0104F00BF9A4F8580104F007F9A4F8FA
:103AC0005A0104F003F9A4F85C0104F0FFF8A4F82B
:103AD0007E0104F0FBF8A4F8800100F0EABCBBF121
:103AE000480F00F01E83BBF14A0F40F0218504F01F
:103AF000EDF8A08100F0DDBCBBF1D10F00F03C83FC
:103B000028D8BBF1CC0F00F0AA8113D8BBF1C80FA5
:103B100072D005D8BBF14E0F00F0C68300F008BD8F
:103B2000BBF1C90F00F00083BBF1CA0F00F0BE80EB
:103B300000F0FEBCBBF1CE0F00F0E582C0F0DA82EF
:103B4000BBF1CF0F00F0FA81BBF1D00F00F0C782BC
:103B500000F0EEBCBBF1D90F00F0B08210D8BBF181
:103B6000D30F43D02FD3BBF1D40F00F02C82BBF185
:103B7000D60F08BF4FF0000900F01A8200F0D8BC41
:103B8000BBF1F20F00F06F8213D8BBF1EF0F40F0E2
:103B9000CF84DFF88893D9F800A004F097F8AAF84A
:103BA0005A00D9F8009004F091F8A9F8580000F0F4
:103BB00080BCBBF1F30F00F04E84BBF1FA0F00F0B4
:103BC000AC8200F0B5BC337803F0040303F0FF09C6
:103BD000002B40F06E8404F06EF8022884F8B407DD
:103BE00040F28382C84B83F8B4977EE204F06EF80B
:103BF000C64B188000F05DBC92F805904FEA590959
:103C0000B9F1120F1CD84FF0000A1DE004F053F870
:103C1000132815D8DFF804A300F11E0BDAF80030E2
:103C200003EB8B0B04F047F8B94B0BF1010903F5DB
:103C3000A872197A814200F0CB800C339342F8D1FC
:103C400009F088F800F035BCCA4507D204F03EF808
:103C500005AB23F81A000AF1010AF5E700234B45EA
:103C6000AC4A06DA05A931F8131022F81310013313
:103C7000F5E709F1FF3902EB49032232934203D001
:103C8000002123F8021FF9E70122A34B43E2DFF8EA
:103C90008C92D9F800A004F00EF88AF80000D9F848
:103CA0000030187804F092FD00F003BC9B4B1A68BA
:103CB00099461278022A6ED14FF00009DFF85CA213
:103CC00009F1080BDAF80030019303F0F4FF0FF06C
:103CD000EDF993490FF0F6FA019B43F82B00DAF85F
:103CE00000B003F0E8FF09F10A030BEB830B0FF0C0
:103CF000DDF98C490FF0E6FADAF80030CBF8040071
:103D0000019303F0D8FF0FF0D1F987490FF0DAFAE9
:103D100009F10E0B019B09F10109B9F1030F43F8F9
:103D20002B00CBD1B9F1070FDAF800B01AD103F0AC
:103D3000C2FF0FF0BBF97A490FF0C4FACBF8440088
:103D4000DAF800B003F0B7FF0FF0B0F974490FF0E4
:103D5000B9FACBF84800DAF800B003F0ACFF8BF802
:103D60004C0012E003F0A7FF0BEB09035870DAF8E0
:103D700000B003F0A0FF0BEB0903D872DAF800B033
:103D800003F099FF0BEB0903587509F10109B9F12B
:103D90000A0FC7D18DE34FF0000AD9F800B003F045
:103DA0008AFF0BEB0A035870D9F800B003F083FFC9
:103DB0000BEB0A03D872D9F800B003F07CFF0BEBD1
:103DC0000A030AF1010ABAF10A0F5875E5D170E346
:103DD0001B788BF8013003F06EFF89F8010003F0C7
:103DE0006AFF89F8020003F066FF89F80300DAF839
:103DF00000004E4BC5F8B00100217930C5F8AC3158
:103E000004F0DAF84A4B80F00100187051E303F037
:103E100052FF0B283FF614AF0AFB00FB3F4B0BF1A0
:103E2000C80B1B689B4403F046FF03283FF608AF0E
:103E30008BF8060003F03FFF8BF8010003F03BFF17
:103E40008BF8020003F037FF8BF8030003F033FF19
:103E50008BF8040003F02FFF8BF8050029E353795A
:103E6000092B7FF6EDAE3348D0F8009003F023FF26
:103E7000304A89F80000D2F8009003F01CFF89F85E
:103E8000010003F018FF2B4A6428A8BF64201368C0
:103E9000187103F010FF274A6428A8BF6420136834
:103EA000587103F008FF234AFF28A8BFFF201368BA
:103EB000987103F000FF1F4B642828BF6420D3F8DB
:103EC000009089F8070003F0F6FE89F8020019480F
:103ED000D0F8009003F0EFFE164A89F80300D2F8FC
:103EE000009003F0F3FEA9F80A00134803685B7919
:103EF0000A2B40F2DE820F4BD3F8009003F0DBFE7A
:103F000089F80800D5E200BF54020020440C0020CC
:103F1000D4A30108801C0020D1010020E00A002069
:103F2000000020410000C84200007A4494030020B1
:103F300018000020640C0020441E002003F0C6FE80
:103F40006FF4AF6E00EB0E039BB2C62B98BFA4F8C4
:103F5000940103F0BBFEA4F8400103F0B7FEA4F8FF
:103F6000420103F0B3FEA4F8440103F0AFFEA4F84D
:103F7000D60103F0A0FE84F8EB0103F09CFE03F0F1
:103F80009AFE84F8EC0103F096FE84F8830103F0B6
:103F900092FE84F8900103F08EFED34BD3F800908C
:103FA00003F094FE00EB80004000A9F8560034E1D5
:103FB00003F08CFECD4B23F8090009F10209B9F199
:103FC000100FF5D175E253790F2B7FF439AE03F062
:103FD00072FE072881463FF633AEDFF80CA3DAF80D
:103FE00000B003F073FE0E2303FB09F90BEB09038A
:103FF000A3F81901DAF800B003F068FE0BEB09032F
:10400000A3F81B01DAF800B003F060FE0BEB090324
:10401000A3F81D01DAF800B003F04DFE0BEB090325
:1040200083F81F01DAF800B003F045FE0BEB09033B
:1040300083F82001DAF800B003F03DFE0BEB090332
:1040400083F82101DAF800B003F035FE0BEB090329
:1040500083F82201DAF800A003F042FE0AEB09031C
:10406000C3F8230125E203F026FE0F2881463FF620
:10407000E7AD03F020FEC9EBC90904EB090383F89F
:10408000D00003F1D00903F016FE89F8010003F017
:1040900012FE89F8020003F00EFE89F8030003F017
:1040A0000AFE89F8040003F006FE89F8050003F013
:1040B00002FE89F8060004F0DFFAFAE103F006FEDA
:1040C000A4F8480103F002FEA4F84A0103F0FEFD43
:1040D000A4F84C0103F0FAFDA4F84E01E9E13378AD
:1040E000590700F1E6810DF09BFC0AF035FB05F065
:1040F0006DFCDEE133785A0700F1DB817C4B4FF435
:10410000C8721A80D5E133785B0700F1D281794B10
:104110001A7842F004021A70CBE133785807E4D5DC
:1041200006E207F0ABFFC4E103F0C5FD714B1A785E
:1041300010B142F0020201E022F002021A7003F014
:10414000BAFD6D4BDFF8C491187003F0C9FDC9F8D2
:10415000000003F0C5FDC9F8040003F0B7FD674B8C
:10416000188003F0B3FD664B188095F8B43143F026
:10417000020385F8B4319CE103F09DFD019003F04A
:10418000AFFD834603F0ACFD824603F0A9FD8146F6
:1041900003F09CFD03F09AFD03F08DFD019B9BB99C
:1041A0001020C5F8B8B1C5F8BCA103F009FD514B0A
:1041B0001A7842F001021A70B9F1000F00F079810B
:1041C000504BC3F8009074E1102B40F07281C5F899
:1041D000C0B1C5F8C4A1B9F1000F02D0494BC3F872
:1041E000009049480223011D85F8C8310AF0D0FF2C
:1041F0005FE1A06003F074FDA3681843A06058E17C
:1042000003F064FDA4F8580103F060FDA4F85A011E
:1042100003F05CFDA4F85C014BE103F04CFD84F875
:10422000780103F048FD84F87C0103F044FD84F834
:104230007B0103F040FD84F87D013AE103F03BFD92
:10424000607136E103F037FD84F88E0103F03EFD26
:10425000A4F8980103F03AFDA4F8940103F036FDA8
:10426000A4F8960103F027FDD8F8003084F88F01F8
:104270005B79DFF89C90082B40F21B8103F026FD50
:10428000A9F89A0103F022FDA9F89C0111E103F0BD
:1042900012FD84F8D40103F00EFD84F8D50103F07B
:1042A00015FDA4F8D60104E192F805B00323BBFB89
:1042B000F3FBBBF1120F3FF6C3ACDFF854904FF0A5
:1042C000000ADA4580F0F58003F0F5FC89F89E01DC
:1042D00003F0FCFC40F2ED2398421BDD40F6CA03DC
:1042E0009842A8BF184617E0E00A0020820D00207F
:1042F000620B00204E020020D80A0020A21D0020E0
:10430000A01D002000020020B81C0020A81D0020D5
:104310005402002040F2EE20A0F2EE20192390FB80
:10432000F3F089F89F010AF1010A09F10209C8E7CF
:10433000814603F0C0FC04EB090309F10109B9F15E
:10434000080F83F88601F4D1B3E053794FF0070AE0
:10435000B3FBFAFACAEBCA029B1A13F0FF0F7FF401
:104360006FAC5FFA8AFABAF1000F00F0A28003F096
:10437000A2FC5FFA80FB4FFA8BF003F05DFD0AF1BF
:10438000FF3A5FFA8AFA814600283FF459AC80F878
:1043900000B003F09BFCA9F8020003F08CFC89F844
:1043A000040003F088FC89F8050003F084FC89F818
:1043B000070003F080FC89F80600D4E7DFF8E892F4
:1043C00009F1400A03F082FCA9F8AC0203F073FC87
:1043D00089F8AE0203F06FFC09F1040989F8AB0219
:1043E000D145EFD165E003F066FC1F283FF628AC0D
:1043F000D8F800305B79082B7FF422AC00F18A0AF0
:1044000003F064FC04EB8A0A00F03F00AAF80600FF
:1044100003F05CFCBAF80620800100F4FE5313435D
:10442000AAF8063003F047FC00018AF8040003F004
:1044300042FC9AF8043000F00F0018438AF8040098
:1044400003F039FC8AF8050001F02AFE31E001236F
:1044500085F8C9312DE003F02EFCFF28824609D1F2
:1044600003F075FC012003F023FC95F8CA0103F06A
:10447000D7FB21E095F8CA219042BFF4E1AB0020C0
:1044800003F016FC03F0DEFBD8F80020106803F000
:10449000A7FED9F8000003F0A3FB50460CF064FA25
:1044A0000A2003F0C0FD0BF001FBD8F8002082F8D1
:1044B00049B0002003F0FCFB03F0C4FBD8F8003047
:1044C000002283F8482095F8C9314BB1386803F0D1
:1044D00087FE0BF0B3F903F0B0FD5F4A5F4BDA6083
:1044E0005F4B4C379F427FF4A4A95E4B1B68990633
:1044F00016D55D4BD5F8CC211B689A1A002A0FDB24
:104500005A4A1278042A0BD9594A03F5123303F593
:10451000F873C2F8CC31574BDA6882F01002DA60D7
:10452000554B9B68002B00F09380544898478FE0D0
:1045300008F010FCC0E70C2825D1514803F07DFE9F
:104540001FE00C28F9D00A2821D1494C4D4804F12C
:10455000B80603F072FE3046232111F064FF10B15B
:10456000801BC4F8B400D5F8B430BBBB464800216A
:104570003022C5F8B43011F023FF44480378002BF3
:10458000B3D043480FE07F2814D1FFF7DDB80D28E2
:10459000DBD07F280BD1013BC4F8B4300022234488
:1045A0003C4883F8B82003F048FEFFF7CDB82F2B26
:1045B0003FF6CAA8A0F12002D2B25E2A3FF6C4A8F4
:1045C00013B920283FF4C0A85A1C2B44C5F8B420C6
:1045D00083F8B80003F08DFBFFF7B6B8591E705C86
:1045E000234A202801D10B46BFE7C2F8B430134458
:1045F000002283F8B820284B284CD3F800A0D4F828
:104600000090DFF86C80484611F01AFF08F1B807F7
:10461000064649463846324611F01AFF204B38B953
:1046200008EB060292F8B82052445278520703D0A1
:1046300010349C42E3D306E09C4204D2701CE36831
:104640003844984702E0174803F0F7FD00238DE750
:104650000FB0BDE8F08F00BF0400FA0500ED00E0E8
:10466000781C0020F4010020A4340020D80A002087
:10467000F81A0020000C0140E40A0020C81C0020A9
:104680001ABB0108DEC80108B01B0020CA34002094
:1046900015BB010841BB010864000020F4A101081A
:1046A000D4A3010825BB0108540200202DE9F04FD6
:1046B0004B28ABB0044600F0FB8500F2B4803028F4
:1046C00000F08A8651D8222800F0508423D803288D
:1046D00000F05E8114D8012800F04E81022840F0DD
:1046E000FC86042003F0E4FA432003F099FA4C20FE
:1046F00003F096FA462003F093FA4C2000F00BBE2C
:10470000042800F04F81052840F0E7861A2003F0C6
:10471000CFFA002459E1282800F0988515D82428DC
:1047200000F07F85262840F0D886B44C062003F0A0
:10473000BFFAB4F8580103F08BFAB4F85A0103F049
:1047400087FAB4F85C0100F0C4BE2C2800F0918513
:104750002E2800F00B862A2840F0BF86012003F0A7
:10476000A7FAA64B587900F0D6BD3D2800F0388353
:104770001ED8362800F0E0850BD8322800F0C58519
:10478000342840F0AA86482003F092FA002500F071
:104790000DBC3A2800F0D4823B2800F0E083382892
:1047A00040F09B86042003F083FA944C00F03FBD58
:1047B000452800F06A8627D8402800F0AF854228B7
:1047C00040F08B868D4C102003F072FA607903F074
:1047D00027FAA06803F045FA94F88E0103F020FA56
:1047E000B4F8580103F034FAB4F85A0103F030FA7F
:1047F000B4F85C0103F02CFAB4F87E0103F028FA57
:10480000B4F8800100F065BE472800F01B86C0F0B8
:104810000886492840F06186022003F049FA774B68
:10482000988900F056BE702800F00F8357D8692889
:1048300000F066822AD8652800F0008115D84D283E
:1048400000F04585642840F04886072003F030FAE0
:10485000E72003F0E5F9694B587903F0E1F900200E
:1048600003F0DEF9042000F01FBE672800F0CD81C0
:1048700000F23A82122003F01BFA614B00241B88DD
:10488000B3F5806F94BF01250825A0E16C2800F0E6
:104890004A8216D86A2800F048846B2840F01D86AA
:1048A000052003F005FA574B188803F0D1F9564B51
:1048B000188803F0CDF9554B187800F0010000F08E
:1048C0002ABD6E2800F0668200F29582062003F071
:1048D000EFF94F4B186803F0C4F94E4B2EE27828DD
:1048E00000F0A08119D8742800F07C830BD87228BE
:1048F00000F0DB83732840F0F085082003F0D8F93E
:10490000012400F00BBC762800F02E8400F2B28364
:104910002F2003F0CDF9404C19E3A42800F04A847D
:1049200013D87C2800F0C385A02840F0D6850C2041
:1049300003F0BEF9394B186803F093F9384B186847
:1049400003F08FF9374B00F06ABCF12800F0A68124
:10495000FE2800F05684F02840F0BF85324C042039
:1049600003F0A6F92368B3F85A0003F071F923683D
:10497000B3F8580000F0ADBD032003F099F9002012
:1049800003F04EF9204603F04BF90E2000F0C3BCB3
:1049900003F08EF9012003F043F90B2003F040F9F6
:1049A00000F006BC062003F083F9412003F038F93B
:1049B000462003F035F94E2003F032F9412003F090
:1049C0002FF91A4B187800F084BD194B185D01348B
:1049D00003F026F90B2CF8D10024164B185D013496
:1049E00003F01EF9082CF8D10024134B185D013494
:1049F00003F016F9072CF8D100F06DBD5402002029
:104A0000080000201A1E00201C1E0020AC1C0020E4
:104A100004020020980A00203FA60108E8F7FF1FC3
:104A2000ECF7FF1FF0F7FF1FE00A0020CD34002055
:104A3000DFAD0108EBAD010844BB01080B2003F01A
:104A400037F9C24BC24C188803F002F9208880B2B3
:104A500003F0FEF8BF4B1B68C3F3C000C3F3800232
:104A6000800040EA4200C3F340021043C3F3401207
:104A700040EAC20003F01003184303F0E9F8B64B14
:104A8000A4781A8812F0010F0CBF0020022012F047
:104A9000020F0CBF0021042112F0040F0CBF0023F1
:104AA00010230393AD4B02F0080A1B6812F0400F6D
:104AB00003F0C00B03F480794BEA0A0A0CBF00260E
:104AC000202603F4805812F0100F4AEA090A0190D8
:104AD00003F4005C0CBF00204FF400704AEA080A9F
:104AE00012F0200F029103F4804E0CBF00214FF40E
:104AF00080614AEA0C0A12F4807F049605900CBF8C
:104B000000264FF4006603F4003003F400474AEA3D
:104B10000E0A0796089003F480364AEA070A0691BF
:104B20004AEA060A03F48021089E09914AEA060A25
:104B3000099E03F400254AEA060A03F480104AEAB3
:104B40000505284303F000730343854812F4007FF2
:104B500006780198C6F3800643EA0603029E43EAFC
:104B60000003039843EA0603049E43EA0003059802
:104B700043EA0603069E43EA0003079843EA060356
:104B800043EA00030CBF00214FF4001112F4806FC0
:104B900043EA01014FF000000CBF00234FF0806397
:104BA00019430346A3420CD26E4A9D5C012202FACD
:104BB00005F50D4218BF9A4003F1010318BF1043D9
:104BC000F0E703F04EF8684B93F8B407A3E3674BA4
:104BD000E05E023490FBF5F080B203F039F8062C69
:104BE000F5D1634C208803F033F8608803F030F887
:104BF000A088604C03F02CF8208803F029F8608826
:104C000003F026F8A08800F064BC102003F050F8F0
:104C10000024594B185D013403F002F8102CF8D130
:104C200000F059BC702003F043F800260E247443B2
:104C3000524D01362B682344B3F8190103F008F8EC
:104C40002B682344B3F81B0103F002F82B682344BC
:104C5000B3F81D0102F0FCFF2B68234493F81F01F9
:104C600002F0DEFF2B68234493F8200102F0D8FF06
:104C70002B68234493F8210102F0D2FF2B682344D0
:104C800093F8220102F0CCFF2B681C44D4F82301D6
:104C900002F0E7FF082EC9D100F01DBC702003F020
:104CA00007F8314C04F1700594F8D00002F0B8FF19
:104CB00094F8D10002F0B4FF94F8D20002F0B0FFF3
:104CC00094F8D30002F0ACFF94F8D40002F0A8FFEF
:104CD00094F8D50002F0A4FF073494F8CF0002F056
:104CE0009FFFAC42E0D1F6E3102002F0E1FF002488
:104CF000234B185D013402F093FF102CF8D1EAE346
:104D0000134D0024A87F400000F0FE0002F0D0FF09
:104D1000AB7F9C4280F0DF831A4B33F8140002F023
:104D200097FF0134F4E7184C062002F0C1FF2088F9
:104D300002F08EFF608802F08BFF144B1888C8E3E6
:104D4000042002F0B5FF124B69E200BFEC0B00201B
:104D5000D01C0020F4010020FC010020F8010020FC
:104D6000CC340020D31C002054020020A80B0020CB
:104D7000F40A0020480200209A0D0020E00A0020DA
:104D8000380D00200A020020640A0020D40B002005
:104D90006C0A0020072002F08BFFAB4B1888FF281D
:104DA000A8BFFF20C0B202F03BFFA84B186880F3F9
:104DB000100080B202F04CFFA54B188C02F048FFA7
:104DC000A44B93F88321A44B2AB11B680A205843B3
:104DD00080F3100002E0186800F30F0080B278E35F
:104DE0009C4C022002F064FF94F8DE0102F018FFF0
:104DF00094F8DD018FE2994C0B2002F059FF2368F3
:104E00000025187802F00CFF23682646587802F037
:104E100007FF3368914C2B441879013502F000FFED
:104E2000032DF6D12368D87902F0FAFE236898782A
:104E300002F0F6FE2368D87802F0F2FE2368588963
:104E400002F006FF2368187A65E2854D1E2002F005
:104E50002FFF2B6800241B78022B65D12B6804F1EF
:104E6000080253F822007F490EF078F911F0B8FCDF
:104E700080F30800C0B202F0D3FE2B687A4903EB3E
:104E80008403D86A0EF06AF911F0AAFC80F30800D6
:104E9000C0B202F0C5FE2B6804F10E0253F82200E6
:104EA00072490EF05BF911F09BFC80F30800C0B270
:104EB000013402F0B5FE032CD0D1072C2B6821D190
:104EC000586C68490EF04AF911F08AFC80F308002A
:104ED000C0B202F0A5FE2B686249986C0EF03EF954
:104EE00011F07EFC80F30800C0B202F099FE2B683E
:104EF00093F84C000EF0DAF811F072FC80F3080021
:104F0000C0B20BE02344587802F08AFE2B68234499
:104F1000D87A02F085FE2B682344587D013402F0D4
:104F20007FFE0A2CC9D1D6E22B682344587802F0C0
:104F300077FE2B682344D87A02F072FE2B68234454
:104F4000587D013402F06CFE0A2CEDD1C3E214F856
:104F5000010F002800F0BF8202F062FEF7E7012097
:104F600002F0A6FE3E4B1B681878D4E1502002F0F8
:104F70009FFE00243A4B04F11E021B680C2103EB38
:104F800082035D1C3A4A5B78013401FB0323187AE3
:104F900002F046FE687802F043FEA87802F040FE78
:104FA000E87802F03DFE142CE4D194E206266E432C
:104FB0002B4BC8361B6801351E44B07902F030FE19
:104FC000707802F02DFEB07802F02AFEF07802F040
:104FD00027FE307902F024FE707902F021FE0C2DBC
:104FE000E4D178E2002701240025194B9A789542F4
:104FF00022DA0333E95C00231D4A03EB02089A5CC2
:105000008A4204D00C33B3F5A87FF5D112E0D8F86A
:10501000040011F015FA81460CB9264601E0074458
:1050200008E04E4506DAD8F80430985D02F0F8FD45
:105030000136F6E70135D8E7002C00F04C82F8B2D3
:1050400002F036FE0024CFE7901D00209C1D0020BA
:10505000D01C002054020020981D0020640C002069
:10506000E00A0020000020410000C84200007A440D
:10507000D4A30108C84D0024A87802F019FEAB782B
:105080009C4280F02882C54BE05C0023C44A9918FA
:105090009A5C824204D00C33B3F5A87FF6D102E0CB
:1050A000087A02F0BDFD0134E9E7BE4C162002F09B
:1050B000FFFDB4F8940102F0CBFDB4F8400102F01A
:1050C000C7FDB4F8420102F0C3FDB4F8440102F098
:1050D000BFFDB4F8D60102F0BBFD94F8EB0102F07D
:1050E0009FFD002002F09CFD94F8EC0102F098FD79
:1050F00094F8830102F094FD94F8900102F090FD81
:10510000002002F08DFDA84B1B68B3F956000A235E
:1051100090FBF3F080B202F09BFD88E0E0B2013436
:1051200002F07EFD092CF9D1D5E1102002F0C0FD7E
:105130009E4B9F4C187800F0020002F071FD9D4BD1
:10514000187802F06DFD206802F08BFD606802F0B7
:1051500088FD994B188802F07BFD984B188802F067
:1051600077FD8D4B588CB4E102F0A5FD0646122068
:1051700002F09EFD0EB9924B02E0102E03D1914B2E
:105180001D685C6801E000242546304602F048FDB9
:10519000284602F066FD204602F063FD8A4B18683F
:1051A00002F05FFD002002F053FD002002F050FDF0
:1051B0000020B0E0784D002495F824002E468000B1
:1051C0000130C0B202F074FD95F8240002F028FD11
:1051D00096F824309C4280F07E817C4D285D02F060
:1051E0001FFD05F11003185D02F01AFD05F1200303
:1051F000185D303502F014FD285D02F011FD013418
:10520000E6E7082002F054FD002002F021FD002016
:1052100002F01EFD002002F01BFD002059E118687D
:1052200042E1042002F044FD5E4B98683CE194F8B2
:10523000780102F0F5FC94F87C0102F0F1FC94F89E
:105240007B0102F0EDFC94F87D0164E0554C0720F1
:1052500002F02EFDB4F87E0102F0FAFCB4F88001F1
:1052600002F0F6FC94F8820102F0DAFCB4F8840152
:105270002FE14C4C0C2002F01BFD94F88E0102F043
:10528000CFFCB4F8980102F0E3FCB4F8940102F00A
:10529000DFFCB4F8960102F0DBFC94F88F0102F019
:1052A000BFFCB4F89A0102F0D3FCB4F89C0110E101
:1052B0003C4C042002F0FCFC94F8D40102F0B0FC59
:1052C00094F8D50102F0ACFCB4F8D60101E1324EFD
:1052D0003F4CB07F002500EB4000C0B202F0E8FC7C
:1052E000B37F02349D4280F0F68014F8020C02F085
:1052F00097FC14F8010C013500EB800000EB8000F6
:1053000000F2EE2002F0A4FCEAE7012002F0D0FC5B
:10531000244B93F8900102F083FCDCE0082002F0BB
:10532000C7FC00241F4B234493F88601013402F08C
:1053300077FC082CF6D1CEE0174B1A4C93F8650099
:1053400004F12805C0EBC000C0B202F0B1FC94F833
:10535000F20100231F4AD25C904200F0C0800C335F
:105360003C2BF7D10834AC42F1D1B4E0402002F03C
:105370009FFC0C4C04F14005B4F8AC0202F068FC50
:1053800094F8AE0202F04CFC043494F8AB0202F044
:1053900047FCAC42F0D19EE0D01C0020D31C002082
:1053A000D4A3010854020020E00A00204E0200208D
:1053B000A81D0020D80A0020A21D0020A01D00204A
:1053C000B01C0020B81C002000020020F51C0020AA
:1053D000F2030020381D0020E02002F069FC4D4C53
:1053E00004F18005B4F82E02043400F03F0002F00E
:1053F0002FFCB4F82A02C0F3861002F029FC94F8BE
:105400002802000902F00CFC94F8280200F00F00BA
:1054100002F006FC94F8290202F002FCAC42E1D151
:1054200059E03D4C0D2002F043FC0BF043FA02F032
:10543000F7FB208802F015FCE06802F012FC00F097
:1054400049FF31E002F04CFC0446842002F030FCBD
:10545000204602F006FC304BDD6804F18003AB42CD
:105460008CBFC4EB050580250CF05CF820462A466D
:105470000AA90BF053FA00240546AC422BDA0AA91C
:10548000085D02F0CDFB0134F7E7132002F010FCB9
:105490000024224B185D013402F0C2FB0B2CF8D122
:1054A000002002F0DEFB002002F0DBFB13E0194CD1
:1054B000082002F0FDFBB4F8480102F0C9FBB4F883
:1054C0004A0102F0C5FBB4F84C0102F0C1FBB4F88C
:1054D0004E0102F0BDFB012018E0002016E002F0B2
:1054E0009FFBB4F8F40102F0B3FB94F8F60102F06C
:1054F00097FB94F8F70102F093FB94F8F90102F09E
:105500008FFB94F8F80102F08BFB2BE72BB0BDE882
:10551000F08F00BF5402002028000020DFAD0108FA
:10552000016B0346C26810B5406941B1196C541A49
:10553000005D013918BF0A46C0B21A6410BD196A6D
:10554000405C0131914228BF0021C0B2196210BDF8
:10555000036B13B15A68036C01E0C269036A9A4293
:1055600037BFC068C3EB02008018C3EB0000C0B2B5
:105570007047436B13B190F844007047826A436AE6
:10558000D31A584258417047436A816A02698B4274
:1055900038BF9B185B1A416B21B149680B44511EFF
:1055A0008B4203D2013AD31AD8B270470020704719
:1055B00043799B070AD5436A8269D154426A0369D9
:1055C0000132B2FBF3F103FB1123436270474379CD
:1055D00003F0020303F0FF0243B10369416A826AE8
:1055E000013BDBB2881A23EA00007047104670477F
:1055F000437913F0010307D0C368C169026A013B14
:10560000881A1840C0B2704718467047437910B5E1
:1056100013F0010304460DD0FFF7EAFF58B1226AE8
:105620006369985CE3680132B2FBF3F103FB112379
:10563000236210BD184610BD426A806A131A584290
:105640005841704741717047334A10B5136C9068E8
:105650001944081A40F68C2398429160D06051603A
:1056600013463CD9127893F945108A420BD1111F89
:10567000082908D893F84610182901D8013103E009
:1056800083F8442002E0002183F8461093F9441087
:105690008A421CD1204991F84710C1B100219142A2
:1056A0001E4806DA03EB8104246920F81140013119
:1056B000F5E7511E00EB41011630814203D0002472
:1056C00021F8024FF9E7164908780130087083F88D
:1056D0004520002201211A7083F8471010BD92F86E
:1056E0004710B9B1A0F2EF2440F2DA518C4208D849
:1056F00011780B2905D80B1D0131117042F82300D8
:1057000010BD002283F84720991804320020302A67
:105710000861F9D110BD00BFEC130020D4010020B6
:10572000D201002010F80A3C0133DBB20A2B00F84A
:105730000A3C07D910F8131C034A002322F8113041
:1057400000F80A3C704700BFD4010020024B1A6CDD
:105750000132114419647047EC130020024B53F8D6
:1057600020301B681980704714150020F8B5104BC5
:1057700053F82060A1F57A700DF04AF94FF03332FA
:105780000C4B0DF0ABF9044630890D460DF040F995
:1057900002460B46204629460DF0A0F90022064B92
:1057A0000DF0C6FA0DF0ACFB376880B23880F8BD5A
:1057B000141500203333F33F00408F402DE9F04FA4
:1057C000724BDFF8D0811A68B8F8006089B0C6EB78
:1057D00022135B437600C6EBE202B8F902601B13AA
:1057E0005643B8F90420039153439B1303EBE62679
:1057F00006EB860380331B120593654BB6F5FA3A28
:105800001B684FEAE67747F1FF3BC8F8186004933E
:10581000AAFB0A670AFB0BF3B8F8102007EB430753
:105820000692B8F80E30B8F908200793D3170AFB90
:1058300003F102FB0B11AAFB02238146B8F90A000F
:105840000B44C1171D0306FB01F300FB0733A6FB46
:1058500000011403194445EA1255020A42EA0162A2
:1058600012194FEA2123B8F8064043EB0503003232
:10587000A2FB040143F5004304FB03114B10CA17BC
:1058800000930192DDE900231343B8F80CC06FD0F8
:10589000069A002012B2D3177343A6FB024502FBFF
:1058A0000733079A1D4412B2D3170AFB03F3AAFB6E
:1058B000026702FB0B331F4472047B04A41843EA03
:1058C000D63345EB0305049B0019C3F580164FEA58
:1058D000E6714FEAC17343EA56034FEAC6720FFA04
:1058E0008CF64FEAC60141EB0501121A63EB010386
:1058F00040F63544A2FB040104FB0311DDE900235B
:105900000DF038FEB8F916404B1304FB03F6420BBA
:1059100042EAC142E51702FB0566A4FB0245634368
:10592000354402FB0535A4FB02232B44540E44EA04
:10593000C314B8F9142024184FEA636545EB010538
:105940005143D31700FB0313A2FB00011944C20CFF
:1059500042EA413212194FEAE143B8F912404FEAE4
:10596000122043EB050340EA03602201024400E0F9
:105970000022B9F1000F02D0120AC9F80020039AE0
:105980000AB1059B136009B0BDE8F08FFC2500202B
:10599000F8250020682E0020704770478C46654B24
:1059A00065492DE9F04F1B684C8998462202002377
:1059B0004FF00009B8EB020869EB03098A88002759
:1059C00016040A8989B0A2FB084502FB0955E209C1
:1059D00042EA4562B4184A884FEAE5134FEAC236F4
:1059E000CA8847EB0305CDE90645A2FB084502FB43
:1059F0000955220A42EA056216EB020A8A894FEA31
:105A00002523A8FB024502FB09554FEAD4524FF06B
:105A1000000742EA452247EB030B12F5FA664FEA0C
:105A2000E55343F10007CDE90467B6F5FA6F77F166
:105A30000007019060DAA2FB026702FB03F107EBAB
:105A400041070521A6FB014501FB0755DDE9066776
:105A500069104FEA3400361A67EB0107CDE9066793
:105A6000DDE90401A608354C46EA8576AF104FF013
:105A7000FF35BAEB060A6BEB070BA042A94128DA07
:105A8000DDE9066740F6AC5412194FF0000543EB10
:105A9000050302FB03F1A2FB02236FF0060403EBF4
:105AA0004103514204FB0311A2FB044536190D4486
:105AB0004FF00B0147EB0507A2FB014501FB035526
:105AC000CDE906676D104FEA3404BAEB040A6BEBBC
:105AD000050B08FB09F3DDE90401A8FB088909EBC4
